S01300002E2F44656275672F446F6F722E733139DA
S315200000000248854600F038F8FEE7C04600C00120C9
S3152000001080B582B000AF0121012000F0C9FE3B006F
S31520000020180000F0B1F93B00AA221A603B00012219
S315200000301A713B0000229A713B000E4A19001000EB
S3152000004000F016F93B00180000F09EF93B005522FF
S315200000501A603B0000221A713B000122DA713B0034
S31520000060044A1900100000F003F9C046BD4602B04C
S3152000007080BDC0460000024080B500AFFFF7C8FF34
S315200000801E4B180000F0DEF903001A00042313406B
S3152000009005D01A4B0221180000F01AFA04E0174B7B
S315200000A00221180000F005FA144B180000F0CAF9D6
S315200000B003001A001023134005D0104B0821180006
S315200000C000F006FA04E00D4B0821180000F0F1F9C3
S315200000D00A4B180000F0B6F903001A00402313401B
S315200000E005D0064B2021180000F0F2F9C8E7034B93
S315200000F02021180000F0DDF9C2E7C04600000240CA
S3152000010080B582B000AF78607B684E4A934208D1B2
S315200001100121012000F0ECFE0021012000F0E8FE84
S315200001208CE07B68484A934208D10121022000F0E6
S31520000130DFFE0021022000F0DBFE7FE07B68434AE1
S31520000140934208D10121042000F0D2FE0021042090
S3152000015000F0CEFE72E07B683D4A934208D1012131
S31520000160082000F0C5FE0021082000F0C1FE65E051
S315200001707B68384A934208D10121102000F0B8FE4E
S315200001800021102000F0B4FE58E07B68324A9342EA
S3152000019008D10121202000F0ABFE0021202000F014
S315200001A0A7FE4BE07B682D4A934208D101214020CF
S315200001B000F09EFE0021402000F09AFE3EE07B6883
S315200001C0274A934208D10121802000F091FE002188
S315200001D0802000F08DFE31E07B68224A93420CD1CC
S315200001E080235B000121180000F082FE80235B0043
S315200001F00021180000F07CFE20E07B681A4A93421A
S315200002000CD180239B000121180000F071FE802371
S315200002109B000021180000F06BFE0FE07B68134A5C
S3152000022093420BD18023DB000121180000F060FEF1
S315200002308023DB000021180000F05AFEC046BD4690
S3152000024002B080BD000002400004024000080240C7
S31520000250000C024000100240001402400018024028
S31520000260001C0240002002400024024000280240D8
S3152000027080B586B000AF7860396000237B610023AB
S315200002803B610023FB6000237B6176E001227B69D2
S315200002909A4013003B613B681A683B691340FB6038
S315200002A0FA683B699A4265D17B681B687A69520075
S315200002B0032191400A00D2431A407B681A607B686A
S315200002C01A683B681B7919007B695B0099400B0013
S315200002D01A437B681A603B681B79012B03D03B6865
S315200002E01B79022B2ED17B689B687A6952000321E9
S315200002F091400A00D2431A407B689A607B689A68CC
S315200003003B685B7919007B695B0099400B001A43B7
S315200003107B689A607B685B687A6992B211000122D9
S315200003208A40D2431A407B685A607B685B683A6889
S31520000330927911007A6992B291400A0092B21A43D8
S315200003407B685A607B68DB687A6992B25200032127
S3152000035091400A00D2431A407B68DA607B68DA68EB
S315200003603B68DB7919007B695B0099400B001A43D7
S315200003707B68DA607B6901337B617B690F2B85D9CA
S31520000380C046BD4606B080BD80B582B000AF78605D
S315200003907B68094A1A607B6800221A717B680022F2
S315200003A05A717B6800229A717B680022DA71C046F6
S315200003B0BD4602B080BDC046FFFF000080B584B0B8
S315200003C000AF78600A00BB1C1A8080235B02FB60AA
S315200003D0BB1C1A88FB681343FB60FA687B68DA61EA
S315200003E0BB1C1A887B68DA61FA687B68DA617B68ED
S315200003F0DB69FB607B68DB69FB60C046BD4604B0F9
S3152000040080BD80B584B000AF78600A00BB1C1A801E
S315200004100F23FB1800221A707B681B69BA1C1288EE
S31520000420134004D00F23FB1801221A7003E00F2378
S31520000430FB1800221A700F23FB181B781800BD46E4
S3152000044004B080BD80B582B000AF78607B681B6940
S315200004509BB21800BD4602B080BD80B584B000AF07
S3152000046078600A00BB1C1A800F23FB1800221A7022
S315200004707B685B69BA1C1288134004D00F23FB18D3
S3152000048001221A7003E00F23FB1800221A700F2393
S31520000490FB181B781800BD4604B080BD80B582B01D
S315200004A000AF78607B685B699BB21800BD4602B0DE
S315200004B080BD80B582B000AF78600A00BB1C1A8070
S315200004C07B68BA1C12881A83C046BD4602B080BD1E
S315200004D080B582B000AF78600A00BB1C1A807B68AA
S315200004E0BA1C12885A83C046BD4602B080BD80B56C
S315200004F082B000AF786008001100BB1C021C1A8075
S315200005007B1C0A1C1A707B1C1B78002B04D07B6872
S31520000510BA1C12881A8303E07B68BA1C12885A8395
S31520000520C046BD4602B080BD80B582B000AF7860BF
S315200005300A00BB1C1A80BB1C1A887B685A61C046FD
S31520000540BD4602B080BD80B582B000AF78600A009B
S31520000550BB1C1A807B685A69BB1C1B885A407B6867
S315200005605A61C046BD4602B080BD80B584B000AF9A
S31520000570786008001100BB1C021C1A807B1C0A1C18
S315200005801A700023FB600023BB607B1C1A78BB1CFF
S315200005901B8807210B409B009A401300FB60BB1C65
S315200005A01B88DB089BB21A007B6808329200D3585E
S315200005B0BA1C128807210A4092000F2191400A0096
S315200005C0D243B91C0988C90889B208001A4011000B
S315200005D07B68020008329200D150BB1C1B88DB08C6
S315200005E09BB21A007B6808329200D358FA681343EC
S315200005F0BB60BB1C1B88DB089BB21A007B680832D9
S315200006009200B968D150C046BD4604B080BDC046F0
S3152000061080B500AF144B1A68134B01210A431A60A8
S31520000620114B00229A60104B1A680F4B0F490A4053
S315200006301A600D4B0E4A5A600B4A84230D49D1503D
S31520000640094A88230C49D150074B1A68064B0B4997
S315200006500A401A60044B0022DA60034A8C230021E8
S31520000660D150C046BD4680BD00380240FFFFF6EAA5
S31520000670103000240030002000300024FFFFFBFF54
S3152000068080B582B000AF0200FB1D1A70054B002218
S315200006901A70044AFB1D1B781370C046BD4602B073
S315200006A080BDC0460238024090B583B000AF00231B
S315200006B03B60FB1D00221A70BB1D00221A70BC1D58
S315200006C0312000F09BFD030023703B6801333B6023
S315200006D03A68A023DB019A4203D0BB1D1B78002B6E
S315200006E0EDD0312000F08AFD031E03D0FB1D012230
S315200006F01A7002E0FB1D00221A70FB1D1B781800E1
S31520000700BD4603B090BD80B584B000AF0200FB1D8E
S315200007101A700023FB600A4B1B68FB60FB68F822FB
S315200007209343FB60FB1D1B78DB00FA681343FB60D9
S31520000730034BFA681A60C046BD4604B080BDC04669
S315200007400038024080B582B000AF0200FB1D1A704F
S31520000750034BFA1D12781A60C046BD4602B080BD12
S315200007600000474280B582B000AF0200FB1D1A7020
S315200007700C4B00221A700B4B00221A70FB1D1B78A3
S31520000780012B02D0042B04D007E0064B01221A705D
S3152000079003E0044B05221A70C046C046BD4602B08F
S315200007A080BDC0467038024080B582B000AF0200DE
S315200007B0FB1D1A70034BFA1D12781A60C046BD46FF
S315200007C002B080BD800E474280B584B000AFF8608D
S315200007D0B9607A603B607B689A01BB681A433B68C4
S315200007E05B08013B1B041A43FB681A431100BB69D3
S315200007F01A06034B0A435A60C046BD4604B080BD64
S315200008000038024080B582B000AF0200FB1D1A708E
S31520000810034BFA1D12781A60C046BD4602B080BD51
S315200008206000474280B582B000AF786039607B684F
S315200008309A013B681B070449134384228B50C04608
S31520000840BD4602B080BDC0460038024080B582B0A9
S3152000085000AF0200FB1D1A70034BFA1D12781A60B6
S31520000860C046BD4602B080BD6800474280B584B010
S3152000087000AFF860B9607A60FB689A01BB681B0616
S315200008801A437B681B070449134388228B50C046B2
S31520000890BD4604B080BDC0460038024080B582B057
S315200008A000AF0200FB1D1A70034BFA1D12781A6066
S315200008B0C046BD4602B080BD7000474280B582B0BA
S315200008C000AF0200FB1D1A70034BFA1D12781A6046
S315200008D0C046BD4602B080BD4C00474280B584B0BC
S315200008E000AF786039600023FB600A4B9B68FB6091
S315200008F0FB68094A1340FB607A683B681343FA6831
S315200009001343FB60034BFA689A60C046BD4604B0A9
S3152000091080BDC04600380240FFFF9FF880B584B0F6
S3152000092000AF786039600023FB600A4B9B68FB6050
S31520000930FB685B015B09FB607A683B681343FA68D6
S315200009401343FB60034BFA689A60C046BD4604B069
S3152000095080BDC0460038024080B584B000AF7860C4
S315200009600023FB60084B9B68FB60FB6803229343D4
S31520000970FB60FA687B681343FB60034BFA689A6056
S31520000980C046BD4604B080BD0038024080B500AFE9
S31520000990044B9B68DBB20C221340DBB21800BD4629
S315200009A080BDC0460038024080B584B000AF786074
S315200009B00023FB60084B9B68FB60FB68F022934397
S315200009C0FB60FA687B681343FB60034BFA689A6006
S315200009D0C046BD4604B080BD0038024080B584B014
S315200009E000AF78600023FB60084B9B68FB60FB68C8
S315200009F0074A1340FB60FA687B681343FB60034B8E
S31520000A00FA689A60C046BD4604B080BD00380240F0
S31520000A10FFE3FFFF80B584B000AF78600023FB6062
S31520000A20094B9B68FB60FB68084A1340FB607B68A8
S31520000A30DB00FA681343FB60034BFA689A60C046F2
S31520000A40BD4604B080BDC04600380240FF1FFFFFF0
S31520000A5080B588B000AF78600023BB6100237B613E
S31520000A600023FB6102233B610023FB600223BB6062
S31520000A70494B9B680C221340BB61BB69042B07D0F2
S31520000A80082B09D0002B41D17B68444A1A6041E0EB
S31520000A907B68434A1A603DE03F4B5B689B0D012211
S31520000AA01340FB603C4B5B683F221340BB60FB68F6
S31520000AB0002B0DD0B9683A4800F022FC03001A003A
S31520000AC0354B5B689B09DB05DB0D5343FB610CE073
S31520000AD0B968324800F014FC03001A002E4B5B68FC
S31520000AE09B09DB05DB0D5343FB612B4B5B681B0C22
S31520000AF00322134001335B003B613969F86900F03A
S31520000B00FFFB03001A007B681A6003E07B68234A18
S31520000B101A60C046204B9B68F0221340BB61BB691C
S31520000B201B09BB611F4ABB69D3181B78DBB27B61EB
S31520000B307B681A687B69DA407B685A60164B9A682C
S31520000B40E0235B011340BB61BB699B0ABB61154A6D
S31520000B50BB69D3181B78DBB27B617B685A687B69DB
S31520000B60DA407B689A600C4B9A68E0231B0213409C
S31520000B70BB61BB695B0BBB610A4ABB69D3181B7897
S31520000B80DBB27B617B685A687B69DA407B68DA6016
S31520000B90C046BD4608B080BD003802400024F4009F
S31520000BA040787D011814002080B584B000AF7860AD
S31520000BB00023FB607A68C0239B001A40C0239B0059
S31520000BC09A420FD10D4B9B68FB60FB680C4A134081
S31520000BD0FB607B680B4A1340FA681343FB60074BA4
S31520000BE0FA689A60054B196F7B681B051A0D034B33
S31520000BF00A431A67C046BD4604B080BD003802408D
S31520000C00FFFFE0FFFFFCFF0F80B582B000AF0200C0
S31520000C10FB1D1A70034BFA1D12781A60C046BD469A
S31520000C2002B080BD3C0E474280B582B000AF0200C4
S31520000C30FB1D1A70034BFA1D12781A60C046BD467A
S31520000C4002B080BD400E474280B582B000AF7860CA
S31520000C50034B7A681A60C046BD4602B080BDC046C6
S31520000C605C01474280B584B000AF78600023FB600A
S31520000C70094A8C23D358FB60FB68084A1340FB6063
S31520000C80FA687B681343FB6003498C22FB688B5010
S31520000C90C046BD4604B080BD00380240FFFFCFFFEE
S31520000CA080B584B000AF78600023FB60094A8C23AE
S31520000CB0D358FB60FB68084A1340FB60FA687B68E0
S31520000CC01343FB6003498C22FB688B50C046BD460C
S31520000CD004B080BD00380240FFFF3FFF80B584B0DE
S31520000CE000AF78600023FB600A4A8C23D358FB6050
S31520000CF0FB681F229343FB607B68013BFA68134322
S31520000D00FB6004498C22FB688B50C046BD4604B06C
S31520000D1080BDC0460038024080B584B000AF786000
S31520000D200023FB600A4A8C23D358FB60FB68094AE0
S31520000D301340FB607B68013B1B02FA681343FB6090
S31520000D4003498C22FB688B50C046BD4604B080BD4B
S31520000D5000380240FFE0FFFF80B584B000AF786026
S31520000D600023FB60094A8C23D358FB60FB68084AA2
S31520000D701340FB60FA687B681343FB6003498C22AF
S31520000D80FB688B50C046BD4604B080BD003802408B
S31520000D90FFFFFCFF80B582B000AF7860034B7A6816
S31520000DA01A60C046BD4602B080BDC046E01147422B
S31520000DB080B582B000AF78600A00FB1C1A70FB1C5D
S31520000DC01B78002B06D0094B196B084B7A680A430F
S31520000DD01A6306E0054B1A6B7B68D943034B0A401E
S31520000DE01A63C046BD4602B080BDC04600380240E8
S31520000DF080B582B000AF78600A00FB1C1A70FB1C1D
S31520000E001B78002B06D0094B596B084B7A680A438E
S31520000E105A6306E0054B5A6B7B68D943034B0A405D
S31520000E205A63C046BD4602B080BDC0460038024067
S31520000E3080B582B000AF78600A00FB1C1A70FB1CDC
S31520000E401B78002B06D0094B996B084B7A680A430E
S31520000E509A6306E0054B9A6B7B68D943034B0A409D
S31520000E609A63C046BD4602B080BDC04600380240E7
S31520000E7080B582B000AF78600A00FB1C1A70FB1C9C
S31520000E801B78002B06D0094B196C084B7A680A434D
S31520000E901A6406E0054B1A6C7B68D943034B0A405B
S31520000EA01A64C046BD4602B080BDC0460038024026
S31520000EB080B582B000AF78600A00FB1C1A70FB1C5C
S31520000EC01B78002B06D0094B596C084B7A680A43CD
S31520000ED05A6406E0054B5A6C7B68D943034B0A409B
S31520000EE05A64C046BD4602B080BDC04600380240A6
S31520000EF080B582B000AF78600A00FB1C1A70FB1C1C
S31520000F001B78002B06D0094B1969084B7A680A43CF
S31520000F101A6106E0054B1A697B68D943034B0A40E0
S31520000F201A61C046BD4602B080BDC04600380240A8
S31520000F3080B582B000AF78600A00FB1C1A70FB1CDB
S31520000F401B78002B06D0094B5969084B7A680A434F
S31520000F505A6106E0054B5A697B68D943034B0A4020
S31520000F605A61C046BD4602B080BDC0460038024028
S31520000F7080B582B000AF78600A00FB1C1A70FB1C9B
S31520000F801B78002B06D0094B9969084B7A680A43CF
S31520000F909A6106E0054B9A697B68D943034B0A4060
S31520000FA09A61C046BD4602B080BDC04600380240A8
S31520000FB080B582B000AF78600A00FB1C1A70FB1C5B
S31520000FC01B78002B06D0094B196A084B7A680A430E
S31520000FD01A6206E0054B1A6A7B68D943034B0A401E
S31520000FE01A62C046BD4602B080BDC04600380240E7
S31520000FF080B582B000AF78600A00FB1C1A70FB1C1B
S315200010001B78002B06D0094B596A084B7A680A438D
S315200010105A6206E0054B5A6A7B68D943034B0A405D
S315200010205A62C046BD4602B080BDC0460038024066
S3152000103080B582B000AF78600A00FB1C1A70FB1CDA
S315200010401B78002B06D0094B196D084B7A680A438A
S315200010501A6506E0054B1A6D7B68D943034B0A4097
S315200010601A65C046BD4602B080BDC0460038024063
S3152000107080B582B000AF78600A00FB1C1A70FB1C9A
S315200010801B78002B06D0094B596D084B7A680A430A
S315200010905A6506E0054B5A6D7B68D943034B0A40D7
S315200010A05A65C046BD4602B080BDC04600380240E3
S315200010B080B582B000AF78600A00FB1C1A70FB1C5A
S315200010C01B78002B06D0094B996D084B7A680A438A
S315200010D09A6506E0054B9A6D7B68D943034B0A4017
S315200010E09A65C046BD4602B080BDC0460038024063
S315200010F080B582B000AF78600A00FB1C1A70FB1C1A
S315200011001B78002B06D0094B196E084B7A680A43C8
S315200011101A6606E0054B1A6E7B68D943034B0A40D4
S315200011201A66C046BD4602B080BDC04600380240A1
S3152000113080B582B000AF78600A00FB1C1A70FB1CD9
S315200011401B78002B06D0094B596E084B7A680A4348
S315200011505A6606E0054B5A6E7B68D943034B0A4014
S315200011605A66C046BD4602B080BDC0460038024021
S3152000117080B582B000AF0200FB1D1A70FB1D1B78E4
S31520001180012B06D1084B1A6F074B08210A431A6711
S3152000119005E0054B1A6F044B08218A431A67C0469F
S315200011A0BD4602B080BDC0460038024080B582B040
S315200011B000AF0200FB1D1A70BB1D0A1C1A70BB1D56
S315200011C01B78002B09D00C4B1B78DAB20A49FB1D81
S315200011D01B781343DBB20B700AE0074B1B78DBB29C
S315200011E0FA1D1278D243D2B203491340DBB20B70F8
S315200011F0C046BD4602B080BD0D38024080B586B0DF
S3152000120000AF0200FB1D1A700023FB6000237B61E8
S315200012101323FB1800221A70FB1D1B785B09DBB217
S31520001220FB60FB68012B03D1144B1B687B6109E033
S31520001230FB68022B03D1114B1B6F7B6102E00F4B26
S315200012405B6F7B61FB1D1B781F221340FB607A6955
S31520001250FB68DA4013000122134004D01323FB1845
S3152000126001221A7003E01323FB1800221A7013239D
S31520001270FB181B781800BD4606B080BD003802401A
S3152000128080B500AF044B5A6F034B802149040A43B3
S315200012905A67C046BD4680BD0038024080B584B03E
S315200012A000AF0200FB1D1A700F23FB1800221A70D4
S315200012B00A4BDB68FA1D1278134004D00F23FB1863
S315200012C001221A7003E00F23FB1800221A700F2345
S315200012D0FB181B781800BD4604B080BD00380240BC
S315200012E080B582B000AF0200FB1D1A70034AFB1DB9
S315200012F01B781370C046BD4602B080BD0E38024032
S31520001300002243088B4274D303098B425FD3030A1E
S315200013108B4244D3030B8B4228D3030C8B420DD331
S31520001320FF22090212BA030C8B4202D312120902BF
S3152000133065D0030B8B4219D300E0090AC30B8B42FD
S3152000134001D3CB03C01A5241830B8B4201D38B03AB
S31520001350C01A5241430B8B4201D34B03C01A524150
S31520001360030B8B4201D30B03C01A5241C30A8B4293
S3152000137001D3CB02C01A5241830A8B4201D38B027E
S31520001380C01A5241430A8B4201D34B02C01A524122
S31520001390030A8B4201D30B02C01A5241CDD2C30994
S315200013A08B4201D3CB01C01A524183098B4201D310
S315200013B08B01C01A524143098B4201D34B01C01AFB
S315200013C0524103098B4201D30B01C01A5241C30873
S315200013D08B4201D3CB00C01A524183088B4201D3E2
S315200013E08B00C01A524143088B4201D34B00C01ACE
S315200013F05241411A00D20146524110467047FFE73A
S3152000140001B5002000F006F802BDC0460029F7D03D
S3152000141076E770477047C0460000000001020304CB
S30D20001420010203040607080976
S70520000000DA
