S01300002E2F44656275672F446F6F722E733139DA
S315200000000248854600F0A4FFFEE7C04600C0012056
S3152000001080B582B000AF02003960FB1D1A70FB1D4F
S315200000201B787F2B0DD93B68DAB20F49FB1D1B7855
S3152000003018000F230340043B1201D2B2CB181A76C4
S315200000400DE03B68DBB20949FA1D127852B21B015A
S31520000050D8B2C0239B008A18D318021C1A70C04637
S31520000060BD4602B080BDC04600ED00E000E100E0E4
S3152000007080B582B000AF78607B68013B0C4A934222
S3152000008001D9012310E00B4B7A68013A5A6001230B
S315200000905B420F211800FFF7BBFF064B00229A6038
S315200000A0044B07221A6000231800BD4602B080BD0B
S315200000B0FFFFFF0010E000E080B500AF144B1A6888
S315200000C0134B01210A431A60114B00229A60104BF0
S315200000D01A680F4B0F490A401A600D4B0E4A5A6098
S315200000E00B4A84230D49D150094A88230C49D15003
S315200000F0074B1A68064B0B490A401A60044B00222C
S31520000100DA60034A8C230021D150C046BD4680BD0B
S3152000011000380240FFFFF6EA1030002400300020AD
S3152000012000300024FFFFFBFF80B582B000AF020045
S31520000130FB1D1A70054B00221A70044AFB1D1B7802
S315200001401370C046BD4602B080BDC046023802408C
S3152000015090B583B000AF00233B60FB1D00221A70D0
S31520000160BB1D00221A70BC1D312000F09BFD030030
S3152000017023703B6801333B603A68A023DB019A4237
S3152000018003D0BB1D1B78002BEDD0312000F08AFD5B
S31520000190031E03D0FB1D01221A7002E0FB1D002264
S315200001A01A70FB1D1B781800BD4603B090BD80B5A4
S315200001B084B000AF0200FB1D1A700023FB600A4BBF
S315200001C01B68FB60FB68F8229343FB60FB1D1B78D2
S315200001D0DB00FA681343FB60034BFA681A60C046DB
S315200001E0BD4604B080BDC0460038024080B582B00E
S315200001F000AF0200FB1D1A70034BFA1D12781A601D
S31520000200C046BD4602B080BD0000474280B582B0E0
S3152000021000AF0200FB1D1A700C4B00221A700B4B0C
S3152000022000221A70FB1D1B78012B02D0042B04D050
S3152000023007E0064B01221A7003E0044B05221A70D0
S31520000240C046C046BD4602B080BDC046703802409A
S3152000025080B582B000AF0200FB1D1A70034BFA1D59
S3152000026012781A60C046BD4602B080BD800E474255
S3152000027080B584B000AFF860B9607A603B607B6877
S315200002809A01BB681A433B685B08013B1B041A436F
S31520000290FB681A431100BB691A06034B0A435A60CE
S315200002A0C046BD4604B080BD0038024080B582B04D
S315200002B000AF0200FB1D1A70034BFA1D12781A605C
S315200002C0C046BD4602B080BD6000474280B582B0C0
S315200002D000AF786039607B689A013B681B07044948
S315200002E0134384228B50C046BD4602B080BDC04613
S315200002F00038024080B582B000AF0200FB1D1A70A4
S31520000300034BFA1D12781A60C046BD4602B080BD66
S315200003106800474280B584B000AFF860B9607A6063
S31520000320FB689A01BB681B061A437B681B070449B6
S31520000330134388228B50C046BD4604B080BDC046BC
S315200003400038024080B582B000AF0200FB1D1A7053
S31520000350034BFA1D12781A60C046BD4602B080BD16
S315200003607000474280B582B000AF0200FB1D1A70B4
S31520000370034BFA1D12781A60C046BD4602B080BDF6
S315200003804C00474280B584B000AF786039600023C6
S31520000390FB600A4B9B68FB60FB68094A1340FB60C5
S315200003A07A683B681343FA681343FB60034BFA6889
S315200003B09A60C046BD4604B080BDC04600380240A3
S315200003C0FFFF9FF880B584B000AF786039600023C6
S315200003D0FB600A4B9B68FB60FB685B015B09FB606B
S315200003E07A683B681343FA681343FB60034BFA6849
S315200003F09A60C046BD4604B080BDC0460038024063
S3152000040080B584B000AF78600023FB60084B9B6802
S31520000410FB60FB6803229343FB60FA687B68134307
S31520000420FB60034BFA689A60C046BD4604B080BDA7
S315200004300038024080B500AF044B9B68DBB20C222B
S315200004401340DBB21800BD4680BDC04600380240CE
S3152000045080B584B000AF78600023FB60084B9B68B2
S31520000460FB60FB68F0229343FB60FA687B681343CA
S31520000470FB60034BFA689A60C046BD4604B080BD57
S315200004800038024080B584B000AF78600023FB605E
S31520000490084B9B68FB60FB68074A1340FB60FA68C1
S315200004A07B681343FB60034BFA689A60C046BD46DF
S315200004B004B080BD00380240FFE3FFFF80B584B062
S315200004C000AF78600023FB60094B9B68FB60FB68EC
S315200004D0084A1340FB607B68DB00FA681343FB6025
S315200004E0034BFA689A60C046BD4604B080BDC0463C
S315200004F000380240FF1FFFFF80B588B000AF78604C
S315200005000023BB6100237B610023FB6102233B6147
S315200005100023FB600223BB60494B9B680C221340DF
S31520000520BB61BB69042B07D0082B09D0002B41D116
S315200005307B68444A1A6041E07B68434A1A603DE082
S315200005403F4B5B689B0D01221340FB603C4B5B6875
S315200005503F221340BB60FB68002B0DD0B9683A4898
S3152000056001F0EEFD03001A00354B5B689B09DB05A5
S31520000570DB0D5343FB610CE0B968324801F0E0FD26
S3152000058003001A002E4B5B689B09DB05DB0D5343EA
S31520000590FB612B4B5B681B0C0322134001335B0072
S315200005A03B613969F86901F0CBFD03001A007B68CD
S315200005B01A6003E07B68234A1A60C046204B9B687A
S315200005C0F0221340BB61BB691B09BB611F4ABB6993
S315200005D0D3181B78DBB27B617B681A687B69DA40AB
S315200005E07B685A60164B9A68E0235B011340BB6117
S315200005F0BB699B0ABB61154ABB69D3181B78DBB262
S315200006007B617B685A687B69DA407B689A600C4B11
S315200006109A68E0231B021340BB61BB695B0BBB617D
S315200006200A4ABB69D3181B78DBB27B617B685A68A0
S315200006307B69DA407B68DA60C046BD4608B080BD7B
S31520000640003802400024F40040787D015C2200201E
S3152000065080B584B000AF78600023FB607A68C02341
S315200006609B001A40C0239B009A420FD10D4B9B68DA
S31520000670FB60FB680C4A1340FB607B680B4A134007
S31520000680FA681343FB60074BFA689A60054B196FAB
S315200006907B681B051A0D034B0A431A67C046BD46E5
S315200006A004B080BD00380240FFFFE0FFFFFCFF0FD3
S315200006B080B582B000AF0200FB1D1A70034BFA1DF5
S315200006C012781A60C046BD4602B080BD3C0E474235
S315200006D080B582B000AF0200FB1D1A70034BFA1DD5
S315200006E012781A60C046BD4602B080BD400E474211
S315200006F080B582B000AF7860034B7A681A60C04636
S31520000700BD4602B080BDC0465C01474280B584B07C
S3152000071000AF78600023FB60094A8C23D358FB6026
S31520000720FB68084A1340FB60FA687B681343FB604A
S3152000073003498C22FB688B50C046BD4604B080BD61
S3152000074000380240FFFFCFFF80B584B000AF78604D
S315200007500023FB60094A8C23D358FB60FB68084AB8
S315200007601340FB60FA687B681343FB6003498C22C5
S31520000770FB688B50C046BD4604B080BD00380240A1
S31520000780FFFF3FFF80B584B000AF78600023FB6099
S315200007900A4A8C23D358FB60FB681F229343FB60D5
S315200007A07B68013BFA681343FB6004498C22FB6893
S315200007B08B50C046BD4604B080BDC04600380240BE
S315200007C080B584B000AF78600023FB600A4A8C2392
S315200007D0D358FB60FB68094A1340FB607B68013BEA
S315200007E01B02FA681343FB6003498C22FB688B507B
S315200007F0C046BD4604B080BD00380240FFE0FFFF82
S3152000080080B584B000AF78600023FB60094A8C2352
S31520000810D358FB60FB68084A1340FB60FA687B6884
S315200008201343FB6003498C22FB688B50C046BD46B0
S3152000083004B080BD00380240FFFFFCFF80B582B0C7
S3152000084000AF7860034B7A681A60C046BD4602B096
S3152000085080BDC046E011474280B582B000AF7860C7
S315200008600A00FB1C1A70FB1C1B78002B06D0094BB8
S31520000870196B084B7A680A431A6306E0054B1A6B14
S315200008807B68D943034B0A401A63C046BD4602B073
S3152000089080BDC0460038024080B582B000AF786087
S315200008A00A00FB1C1A70FB1C1B78002B06D0094B78
S315200008B0596B084B7A680A435A6306E0054B5A6B14
S315200008C07B68D943034B0A405A63C046BD4602B0F3
S315200008D080BDC0460038024080B582B000AF786047
S315200008E00A00FB1C1A70FB1C1B78002B06D0094B38
S315200008F0996B084B7A680A439A6306E0054B9A6B14
S315200009007B68D943034B0A409A63C046BD4602B072
S3152000091080BDC0460038024080B582B000AF786006
S315200009200A00FB1C1A70FB1C1B78002B06D0094BF7
S31520000930196C084B7A680A431A6406E0054B1A6C50
S315200009407B68D943034B0A401A64C046BD4602B0B1
S3152000095080BDC0460038024080B582B000AF7860C6
S315200009600A00FB1C1A70FB1C1B78002B06D0094BB7
S31520000970596C084B7A680A435A6406E0054B5A6C50
S315200009807B68D943034B0A405A64C046BD4602B031
S3152000099080BDC0460038024080B582B000AF786086
S315200009A00A00FB1C1A70FB1C1B78002B06D0094B77
S315200009B01969084B7A680A431A6106E0054B1A69D9
S315200009C07B68D943034B0A401A61C046BD4602B034
S315200009D080BDC0460038024080B582B000AF786046
S315200009E00A00FB1C1A70FB1C1B78002B06D0094B37
S315200009F05969084B7A680A435A6106E0054B5A69D9
S31520000A007B68D943034B0A405A61C046BD4602B0B3
S31520000A1080BDC0460038024080B582B000AF786005
S31520000A200A00FB1C1A70FB1C1B78002B06D0094BF6
S31520000A309969084B7A680A439A6106E0054B9A69D8
S31520000A407B68D943034B0A409A61C046BD4602B033
S31520000A5080BDC0460038024080B582B000AF7860C5
S31520000A600A00FB1C1A70FB1C1B78002B06D0094BB6
S31520000A70196A084B7A680A431A6206E0054B1A6A15
S31520000A807B68D943034B0A401A62C046BD4602B072
S31520000A9080BDC0460038024080B582B000AF786085
S31520000AA00A00FB1C1A70FB1C1B78002B06D0094B76
S31520000AB0596A084B7A680A435A6206E0054B5A6A15
S31520000AC07B68D943034B0A405A62C046BD4602B0F2
S31520000AD080BDC0460038024080B582B000AF786045
S31520000AE00A00FB1C1A70FB1C1B78002B06D0094B36
S31520000AF0196D084B7A680A431A6506E0054B1A6D8C
S31520000B007B68D943034B0A401A65C046BD4602B0EE
S31520000B1080BDC0460038024080B582B000AF786004
S31520000B200A00FB1C1A70FB1C1B78002B06D0094BF5
S31520000B30596D084B7A680A435A6506E0054B5A6D8B
S31520000B407B68D943034B0A405A65C046BD4602B06E
S31520000B5080BDC0460038024080B582B000AF7860C4
S31520000B600A00FB1C1A70FB1C1B78002B06D0094BB5
S31520000B70996D084B7A680A439A6506E0054B9A6D8B
S31520000B807B68D943034B0A409A65C046BD4602B0EE
S31520000B9080BDC0460038024080B582B000AF786084
S31520000BA00A00FB1C1A70FB1C1B78002B06D0094B75
S31520000BB0196E084B7A680A431A6606E0054B1A6EC8
S31520000BC07B68D943034B0A401A66C046BD4602B02D
S31520000BD080BDC0460038024080B582B000AF786044
S31520000BE00A00FB1C1A70FB1C1B78002B06D0094B35
S31520000BF0596E084B7A680A435A6606E0054B5A6EC8
S31520000C007B68D943034B0A405A66C046BD4602B0AC
S31520000C1080BDC0460038024080B582B000AF0200D9
S31520000C20FB1D1A70FB1D1B78012B06D1084B1A6F72
S31520000C30074B08210A431A6705E0054B1A6F044B38
S31520000C4008218A431A67C046BD4602B080BDC04609
S31520000C500038024080B582B000AF0200FB1D1A703A
S31520000C60BB1D0A1C1A70BB1D1B78002B09D00C4B10
S31520000C701B78DAB20A49FB1D1B781343DBB20B70D3
S31520000C800AE0074B1B78DBB2FA1D1278D243D2B2A8
S31520000C9003491340DBB20B70C046BD4602B080BD8F
S31520000CA00D38024080B586B000AF0200FB1D1A70D9
S31520000CB00023FB6000237B611323FB1800221A709C
S31520000CC0FB1D1B785B09DBB2FB60FB68012B03D1A4
S31520000CD0144B1B687B6109E0FB68022B03D1114B87
S31520000CE01B6F7B6102E00F4B5B6F7B61FB1D1B78EB
S31520000CF01F221340FB607A69FB68DA401300012249
S31520000D00134004D01323FB1801221A7003E0132387
S31520000D10FB1800221A701323FB181B781800BD46F7
S31520000D2006B080BD0038024080B500AF044B5A6F34
S31520000D30034B802149040A435A67C046BD4680BDFD
S31520000D400038024080B584B000AF0200FB1D1A7047
S31520000D500F23FB1800221A700A4BDB68FA1D127843
S31520000D60134004D00F23FB1801221A7003E00F232F
S31520000D70FB1800221A700F23FB181B781800BD469B
S31520000D8004B080BD0038024080B582B000AF0200BA
S31520000D90FB1D1A70034AFB1D1B781370C046BD4607
S31520000DA002B080BD0E38024080B584B000AF7860B6
S31520000DB00023FB6012E00D4BFA685200D35A0C4A0E
S31520000DC01900100000F05FFA031E04D07B681B6830
S31520000DD05A1C7B681A60FB680233FB60FB681F2B7A
S31520000DE0E9D9C046BD4604B080BDC0466C2200206D
S31520000DF00010024080B584B000AF786039600023CF
S31520000E00FB600023BB6039E0FA683B689A4239D020
S31520000E101F4BBA685200D35A1E4A1900100000F020
S31520000E2032FA031E27D0FB680133FB60BB68DAB2B7
S31520000E307B681A707B6800225A607B6801221A72CE
S31520000E407B6802225A727B680022DA60BB685A1CD1
S31520000E500F4B5200D35A1A007B681A610C4BBA68A2
S31520000E605200D35A1A007B685A617B6800229A6125
S31520000E707B681C337B60BB680233BB60BB681F2B5F
S31520000E80C2D900E0C046C046BD4604B080BDC046BB
S31520000E906C2200200010024080B582B000AF0121F4
S31520000EA01020FFF7D9FC3B00180000F0AFF93B00FB
S31520000EB0134A1A603B0001221A713B0000229A71E4
S31520000EC03B000022DA713B000E4A1900100000F0A8
S31520000ED011F93B00180000F099F93B000A4A1A6004
S31520000EE03B0000221A713B000122DA713B00054AC1
S31520000EF01900100000F0FEF8C046BD4602B080BDC5
S31520000F00AAAA0000001002405555000080B500AF87
S31520000F10034B1B685A1C024B1A60C046BD4680BD57
S31520000F205822002080B582B000AF064B064A1A60D0
S31520000F30064B1800FFF79CF803007B60C046BD46B1
S31520000F4002B080BD3CC001200D0F00204090020061
S31520000F5080B500AFFFF7A0FF8023DB01084A190008
S31520000F60100000F090F9031E06D080231B02044ACD
S31520000F701900100000F0DFF9C046BD4680BDC0460E
S31520000F800010024080B582B000AF78607B684E4A80
S31520000F90934208D101210120FFF7FEFC0021012008
S31520000FA0FFF7FAFC8CE07B68484A934208D101217E
S31520000FB00220FFF7F1FC00210220FFF7EDFC7FE085
S31520000FC07B68434A934208D101210420FFF7E4FCC1
S31520000FD000210420FFF7E0FC72E07B683D4A934243
S31520000FE008D101210820FFF7D7FC00210820FFF7B0
S31520000FF0D3FC65E07B68384A934208D10121102052
S31520001000FFF7CAFC00211020FFF7C6FC58E07B68DA
S31520001010324A934208D101212020FFF7BDFC00214E
S315200010202020FFF7B9FC4BE07B682D4A934208D17C
S3152000103001214020FFF7B0FC00214020FFF7ACFC47
S315200010403EE07B68274A934208D101218020FFF7A2
S31520001050A3FC00218020FFF79FFC31E07B68224A19
S3152000106093420CD180235B0001211800FFF794FCEA
S3152000107080235B0000211800FFF78EFC20E07B68B0
S315200010801A4A93420CD180239B0001211800FFF7B6
S3152000109083FC80239B0000211800FFF77DFC0FE0D6
S315200010A07B68134A93420BD18023DB000121180071
S315200010B0FFF772FC8023DB0000211800FFF76CFC91
S315200010C0C046BD4602B080BD00000240000402407A
S315200010D000080240000C02400010024000140240AA
S315200010E000180240001C024000200240002402405A
S315200010F00028024080B586B000AF786039600023B2
S315200011007B6100233B610023FB6000237B6176E04B
S3152000111001227B699A4013003B613B681A683B6950
S315200011201340FB60FA683B699A4265D17B681B686D
S315200011307A695200032191400A00D2431A407B6803
S315200011401A607B681A683B681B7919007B695B000B
S3152000115099400B001A437B681A603B681B79012B68
S3152000116003D03B681B79022B2ED17B689B687A695A
S315200011705200032191400A00D2431A407B689A60AC
S315200011807B689A683B685B7919007B695B009940AC
S315200011900B001A437B689A607B685B687A6992B217
S315200011A0110001228A40D2431A407B685A607B682C
S315200011B05B683A68927911007A6992B291400A0086
S315200011C092B21A437B685A607B68DB687A6992B26E
S315200011D05200032191400A00D2431A407B68DA600C
S315200011E07B68DA683B68DB7919007B695B0099408C
S315200011F00B001A437B68DA607B6901337B617B696C
S315200012000F2B85D9C046BD4606B080BD80B582B0BD
S3152000121000AF78607B68094A1A607B6800221A71E1
S315200012207B6800225A717B6800229A717B680022B3
S31520001230DA71C046BD4602B080BDC046FFFF000041
S3152000124080B584B000AF78600A00BB1C1A8080236A
S315200012505B02FB60BB1C1A88FB681343FB60FA68C1
S315200012607B68DA61BB1C1A887B68DA61FA687B685E
S31520001270DA617B68DB69FB607B68DB69FB60C04603
S31520001280BD4604B080BD80B584B000AF78600A004A
S31520001290BB1C1A800F23FB1800221A707B681B695F
S315200012A0BA1C1288134004D00F23FB1801221A708F
S315200012B003E00F23FB1800221A700F23FB181B785C
S315200012C01800BD4604B080BD80B582B000AF7860FE
S315200012D07B681B699BB21800BD4602B080BD80B5F5
S315200012E084B000AF78600A00BB1C1A800F23FB185D
S315200012F000221A707B685B69BA1C1288134004D0DE
S315200013000F23FB1801221A7003E00F23FB1800227B
S315200013101A700F23FB181B781800BD4604B080BD39
S3152000132080B582B000AF78607B685B699BB218009D
S31520001330BD4602B080BD80B582B000AF78600A009D
S31520001340BB1C1A807B68BA1C12881A83C046BD460D
S3152000135002B080BD80B582B000AF78600A00BB1CA9
S315200013601A807B68BA1C12885A83C046BD4602B0D2
S3152000137080BD80B582B000AF786008001100BB1C2C
S31520001380021C1A807B1C0A1C1A707B1C1B78002BE3
S3152000139004D07B68BA1C12881A8303E07B68BA1CC7
S315200013A012885A83C046BD4602B080BD80B582B041
S315200013B000AF78600A00BB1C1A80BB1C1A887B68A9
S315200013C05A61C046BD4602B080BD80B582B000AF2E
S315200013D078600A00BB1C1A807B685A69BB1C1B8874
S315200013E05A407B685A61C046BD4602B080BD80B572
S315200013F084B000AF786008001100BB1C021C1A8064
S315200014007B1C0A1C1A700023FB600023BB607B1C1C
S315200014101A78BB1C1B8807210B409B009A4013009F
S31520001420FB60BB1C1B88DB089BB21A007B6808325A
S315200014309200D358BA1C128807210A4092000F2125
S3152000144091400A00D243B91C0988C90889B208000C
S315200014501A4011007B68020008329200D150BB1C52
S315200014601B88DB089BB21A007B6808329200D3588F
S31520001470FA681343BB60BB1C1B88DB089BB21A00AF
S315200014807B6808329200B968D150C046BD4604B088
S3152000149080BDC04680B582B000AF7860044B7A68C4
S315200014A004490A43DA60C046BD4602B080BDC04644
S315200014B000ED00E00000FA05B0B584B000AF78601A
S315200014C00F23FB1800221A700E23FB1800221A7015
S315200014D00D23FB180F221A707B68DB78002B4DD06A
S315200014E0314BDB68DB431B0ADAB20F203B1807219E
S315200014F00A401A700E257B193A18127804218A1A86
S315200015001A700D243B191A7801007B181B781A4192
S315200015103B191A707B685B781A007B191B789A40F6
S3152000152008007B181A707B689B783A19127813404A
S31520001530D9B23B183A1812780A431A703B183A184F
S31520001540127812011A70194A7B681B781900C02379
S315200015509B005218D3183A1812781A707B681B7899
S315200015601A001F23134011497A6812785209D2B201
S31520001570100001229A4083005A5010E07B681B78A5
S315200015801A001F23134009497A6812785209D2B2E9
S31520001590100001229A40030020339B005A50C04677
S315200015A0BD4604B0B0BDC04600ED00E000E100E05D
S315200015B080B582B000AF786039603B68054A134039
S315200015C01900054B7A680A439A60C046BD4602B0A8
S315200015D080BDC04680FFFF1F00ED00E080B582B0D1
S315200015E000AF0200FB1D1A70BB1D0A1C1A70BB1D22
S315200015F01B78002B07D00A4B1969FB1D1A78084B5C
S315200016000A431A6107E0064B1A69FB1D1B78D9436A
S31520001610034B0A401A61C046BD4602B080BDC04693
S3152000162000ED00E080B582B000AF78607B68042BC7
S3152000163006D1084B1A68074B04210A431A6005E0B5
S31520001640044B1A68034B04218A431A60C046BD46E0
S3152000165002B080BD10E000E080B582B000AF7860B7
S315200016607B686422002199547B6865220021995465
S315200016707B68662200219954C046BD4602B080BDD3
S3152000168080B582B000AF78600A00FB1C1A707B68B8
S3152000169064229B5C642B01D100231EE07B686522BB
S315200016A09B5C5A1CD0B27A686521505419007B681D
S315200016B0FA1C12785A547B6864229B5C0133D9B297
S315200016C07B68642299547B6865229B5C642B03D1DA
S315200016D07B6865220021995401231800BD4602B07B
S315200016E080BD80B582B000AF786039607B686422A7
S315200016F09B5C002B01D100231EE07B6866229B5C4D
S315200017005A1CD0B27A68662150541A007B689A5CBB
S315200017103B681A707B6864229B5C013BD9B27B686C
S31520001720642299547B6866229B5C642B03D17B6878
S3152000173066220021995401231800BD4602B080BDBF
S3152000174080B582B000AF78607B68414A934208D169
S3152000175001211020FFF7A0F900211020FFF79CF9A6
S3152000176071E07B683B4A93420CD180239B02012186
S315200017701800FFF771F980239B0200211800FFF75C
S315200017806BF960E07B68344A93420CD18023DB02FC
S3152000179001211800FFF760F98023DB0200211800E1
S315200017A0FFF75AF94FE07B682C4A93420CD18023ED
S315200017B01B0301211800FFF74FF980231B0300218B
S315200017C01800FFF749F93EE07B68254A93420CD181
S315200017D080235B0301211800FFF73EF980235B037A
S315200017E000211800FFF738F92DE07B681D4A934247
S315200017F008D101212020FFF74FF900212020FFF7F3
S315200018004BF920E07B68184A93420CD18023DB05F4
S3152000181001211800FFF720F98023DB05002118009D
S31520001820FFF71AF90FE07B68104A93420BD1802309
S315200018301B0601211800FFF70FF980231B06002144
S315200018401800FFF709F9C046BD4602B080BDC04664
S31520001850001001400044004000480040004C004079
S31520001860005000400014014000780040007C0040F9
S3152000187080B58AB000AF7860396000237B62002390
S315200018803B620023FB610023BB617B681B8A9BB202
S315200018907B627B6A564A13407B623B68DB881A0070
S315200018A07B6A13437B627B6A9AB27B681A827B6867
S315200018B09B899BB27B627B6A4E4A13407B623B6864
S315200018C09A883B681B8913439AB23B685B8913430A
S315200018D09BB21A007B6A13437B627B6A9AB27B684F
S315200018E09A817B689B8A9BB27B627B6A424A1340C1
S315200018F07B623B689B891A007B6A13437B627B6A07
S315200019009AB27B689A820823FB181800FEF7F4FD2A
S315200019107B683A4A934203D07B68394A934204D182
S315200019200823FB18DB683B6203E00823FB189B684F
S315200019303B627B689B899BB21BB2002B0FDA3A6A0B
S3152000194013009B009B189A009A183B681B685B0043
S315200019501900100000F0F4FB0300FB610EE03A6A68
S3152000196013009B009B189A009A183B681B689B00E3
S315200019701900100000F0E4FB0300FB61FB69642101
S31520001980180000F0DDFB03001B017B627B6A1B094C
S3152000199064225343FA69D31ABB617B689B899BB245
S315200019A01BB2002B0EDABB69DB0032336421180030
S315200019B000F0C6FB03001A00072313407A6A13437C
S315200019C07B620DE0BB691B0132336421180000F0F5
S315200019D0B7FB03001A000F2313407A6A13437B6276
S315200019E07B6A9AB27B681A81C046BD460AB080BD22
S315200019F0FFCFFFFFF3E9FFFFFFFCFFFF00100140D1
S31520001A000014014080B582B000AF78607B689622D2
S31520001A1092011A607B6800229A807B680022DA8015
S31520001A207B6800221A817B680C225A817B680022FF
S31520001A309A81C046BD4602B080BD80B584B000AF55
S31520001A40786039600023FB607B681B8A9BB2FB6051
S31520001A50FB680E4A1340FB603B681A883B685B882C
S31520001A6013439AB23B689B8813439AB23B68DB8840
S31520001A7013439BB21A00FB681343FB60FB689AB2C0
S31520001A807B681A82C046BD4604B080BDFFF0FFFFCA
S31520001A9080B582B000AF78607B6800221A807B68B0
S31520001AA000225A807B6800229A807B680022DA8096
S31520001AB0C046BD4602B080BD80B582B000AF78601A
S31520001AC00A00FB1C1A70FB1C1B78002B09D07B68B4
S31520001AD09B899BB28022920113439AB27B689A819A
S31520001AE007E07B689B899BB2044A13409AB27B68C5
S31520001AF09A81C046BD4602B080BDC046FFDFFFFFCB
S31520001B0080B582B000AF78600A00FB1C1A707B6833
S31520001B101B8B9BB2FF2293439AB27B681A837B6806
S31520001B201B8B9AB2FB1C1B789BB213439AB27B6821
S31520001B301A83C046BD4602B080BD80B582B000AFD4
S31520001B4078600A00FB1C1A70FB1C1B78002B08D03F
S31520001B507B689B899BB2094A13439AB27B689A8118
S31520001B6007E07B689B899BB25B045B0C9AB27B681F
S31520001B709A81C046BD4602B080BDC0460080FFFFA8
S31520001B8080B582B000AF78600A00FB1C1A70FB1C7F
S31520001B901B78002B09D07B689B8A9BB2802212017E
S31520001BA013439AB27B689A8207E07B689B8A9BB232
S31520001BB0044A13409AB27B689A82C046BD4602B058
S31520001BC080BDC046FFF7FFFF80B582B000AF7860CA
S31520001BD00A00BB1C1A80BB1C1B88DB05DB0D9AB2D6
S31520001BE07B689A80C046BD4602B080BD80B582B073
S31520001BF000AF78607B689B889BB2DB05DB0D9BB2D0
S31520001C001800BD4602B080BD80B582B000AF7860B6
S31520001C100A00FB1C1A707B681B8A9BB20F22934317
S31520001C209AB27B681A827B681B8A9AB2FB1C1B7845
S31520001C309BB213439AB27B681A82C046BD4602B055
S31520001C4080BD80B582B000AF78600A00FB1C1A7098
S31520001C50FB1C1B78002B08D07B689B899BB2022239
S31520001C6013439AB27B689A8107E07B689B899BB273
S31520001C70022293439AB27B689A81C046BD4602B03F
S31520001C8080BD80B582B000AF78600A00BB1C1A8088
S31520001C907B689B899BB2094A13409AB27B689A81DA
S31520001CA07B689B899AB2BB1C1B8813439AB27B68BC
S31520001CB09A81C046BD4602B080BDC046FFF7FFFFF1
S31520001CC080B582B000AF78600A00BB1C1A807B68A2
S31520001CD01B8A9BB2202293439AB27B681A827B6826
S31520001CE01B8A9AB2BB1C1B8813439AB27B681A8242
S31520001CF0C046BD4602B080BD80B582B000AF7860D8
S31520001D000A00FB1C1A70FB1C1B78002B09D07B6871
S31520001D101B8A9BB28022D20113439AB27B681A8215
S31520001D2007E07B681B8A9BB2044A13409AB27B6801
S31520001D301A82C046BD4602B080BDC046FFBFFFFF27
S31520001D4080B582B000AF78607B689B899BB2012208
S31520001D5013439AB27B689A81C046BD4602B080BDC5
S31520001D6080B582B000AF78600A00FB1C1A70FB1C9D
S31520001D701B78002B08D07B689B8A9BB208221343D2
S31520001D809AB27B689A8207E07B689B8A9BB208227C
S31520001D9093439AB27B689A82C046BD4602B080BD04
S31520001DA080B582B000AF78600A00FB1C1A707B6891
S31520001DB01B8B9BB2FF2213409AB27B681A837B68E7
S31520001DC01B8B9AB2FB1C1B789BB21B029BB2134344
S31520001DD09AB27B681A83C046BD4602B080BD80B5E4
S31520001DE082B000AF78600A00FB1C1A70FB1C1B78BF
S31520001DF0002B08D07B689B8A9BB2202213439AB281
S31520001E007B689A8207E07B689B8A9BB22022934359
S31520001E109AB27B689A82C046BD4602B080BD80B524
S31520001E2082B000AF78600A00FB1C1A70FB1C1B787E
S31520001E30002B08D07B689B8A9BB2102213439AB250
S31520001E407B689A8207E07B689B8A9BB21022934329
S31520001E509AB27B689A82C046BD4602B080BD80B5E4
S31520001E6082B000AF78600A00BB1C1A807B689B8A10
S31520001E709BB2042293439AB27B689A827B689B8AA0
S31520001E809AB2BB1C1B8813439AB27B689A82C046BF
S31520001E90BD4602B080BD80B582B000AF78600A0032
S31520001EA0FB1C1A70FB1C1B78002B08D07B689B8AB6
S31520001EB09BB2022213439AB27B689A8207E07B6820
S31520001EC09B8A9BB2022293439AB27B689A82C0462F
S31520001ED0BD4602B080BD80B582B000AF78600800F4
S31520001EE01100BB1C021C1A807B1C0A1C1A707B1C4E
S31520001EF01B78002B09D07B689B8A9AB2BB1C1B8857
S31520001F0013439AB27B689A820AE07B689B8A9BB2CB
S31520001F10BA1C1288D24392B213409AB27B689A8234
S31520001F20C046BD4602B080BD80B586B000AF7860A1
S31520001F3008001100BB1C021C1A807B1C0A1C1A708C
S31520001F4000233B610023FB600023BB6000237B61F1
S31520001F507B687B61BB1C1B88DBB25B09DBB23B6108
S31520001F60BB1C1B881F221340FB600122FB689A4082
S31520001F701300BB603B69012B03D17B690C337B616A
S31520001F8009E03B69022B03D17B6910337B6102E0B8
S31520001F907B6914337B617B1C1B78002B06D07B6905
S31520001FA019687B69BA680A431A6006E07B691A6871
S31520001FB0BB68D9437B690A401A60C046BD4606B055
S31520001FC080BD80B584B000AF78600A00BB1C1A8043
S31520001FD00F23FB1800221A707B681B889BB2BA1C41
S31520001FE0128813409BB2002B04D00F23FB1801222A
S31520001FF01A7003E00F23FB1800221A700F23FB1818
S315200020001B781800BD4604B080BD80B582B000AFF5
S3152000201078600A00BB1C1A80BB1C1B88DB439AB263
S315200020207B681A80C046BD4602B080BD80B586B0AA
S3152000203000AF78600A00BB1C1A800023FB600023D7
S315200020407B610023BB601323FB1800221A70BB1C84
S315200020501B88DBB25B09DBB2BB60BB1C1B881F2263
S3152000206013407B6101227B699A4013007B61BB6828
S31520002070012B07D17B689B899BB21A007B69134091
S315200020807B6111E0BB68022B07D17B681B8A9BB260
S315200020901A007B6913407B6106E07B689B8A9BB2B2
S315200020A01A007B6913407B61BB1C1B881B0A9BB2F1
S315200020B0FB600122FB689A401300FB607B681B884B
S315200020C09BB21A00FB681340FB607B69002B07D08C
S315200020D0FB68002B04D01323FB1801221A7003E09F
S315200020E01323FB1800221A701323FB181B781800E1
S315200020F0BD4606B080BD80B584B000AF78600A00CA
S31520002100BB1C1A800E217B1800221A800C203B183B
S3152000211000221A807B18BA1C1288120A1A807B1891
S315200021201B8801229A403B181A803B181B88DB43E8
S315200021309AB27B681A80C046BD4604B080BDC046B0
S31520002140002243088B4274D303098B425FD3030AD0
S315200021508B4244D3030B8B4228D3030C8B420DD3E3
S31520002160FF22090212BA030C8B4202D31212090271
S3152000217065D0030B8B4219D300E0090AC30B8B42AF
S3152000218001D3CB03C01A5241830B8B4201D38B035D
S31520002190C01A5241430B8B4201D34B03C01A524102
S315200021A0030B8B4201D30B03C01A5241C30A8B4245
S315200021B001D3CB02C01A5241830A8B4201D38B0230
S315200021C0C01A5241430A8B4201D34B02C01A5241D4
S315200021D0030A8B4201D30B02C01A5241CDD2C30946
S315200021E08B4201D3CB01C01A524183098B4201D3C2
S315200021F08B01C01A524143098B4201D34B01C01AAD
S31520002200524103098B4201D30B01C01A5241C30824
S315200022108B4201D3CB00C01A524183088B4201D393
S315200022208B00C01A524143088B4201D34B00C01A7F
S315200022305241411A00D20146524110467047FFE7EB
S3152000224001B5002000F006F802BDC0460029F7D0EF
S3152000225076E770477047C046000000000000000087
S315200022600102030401020304060708090100020013
S315200022700400080010002000400080000001000239
S3112000228000040008001000200040008030
S70520000000DA
