S01300002E2F44656275672F446F6F722E733139DA
S315200000000248854600F026FFFEE7C04600C00120D4
S3152000001080B582B000AF02003960FB1D1A70FB1D4F
S315200000201B787F2B0DD93B68DAB20F49FB1D1B7855
S3152000003018000F230340043B1201D2B2CB181A76C4
S315200000400DE03B68DBB20949FA1D127852B21B015A
S31520000050D8B2C0239B008A18D318021C1A70C04637
S31520000060BD4602B080BDC04600ED00E000E100E0E4
S3152000007080B582B000AF78607B68013B0C4A934222
S3152000008001D9012310E00B4B7A68013A5A6001230B
S315200000905B420F211800FFF7BBFF064B00229A6038
S315200000A0044B07221A6000231800BD4602B080BD0B
S315200000B0FFFFFF0010E000E080B500AF144B1A6888
S315200000C0134B01210A431A60114B00229A60104BF0
S315200000D01A680F4B0F490A401A600D4B0E4A5A6098
S315200000E00B4A84230D49D150094A88230C49D15003
S315200000F0074B1A68064B0B490A401A60044B00222C
S31520000100DA60034A8C230021D150C046BD4680BD0B
S3152000011000380240FFFFF6EA1030002400300020AD
S3152000012000300024FFFFFBFF80B582B000AF020045
S31520000130FB1D1A70054B00221A70044AFB1D1B7802
S315200001401370C046BD4602B080BDC046023802408C
S3152000015090B583B000AF00233B60FB1D00221A70D0
S31520000160BB1D00221A70BC1D312000F09BFD030030
S3152000017023703B6801333B603A68A023DB019A4237
S3152000018003D0BB1D1B78002BEDD0312000F08AFD5B
S31520000190031E03D0FB1D01221A7002E0FB1D002264
S315200001A01A70FB1D1B781800BD4603B090BD80B5A4
S315200001B084B000AF0200FB1D1A700023FB600A4BBF
S315200001C01B68FB60FB68F8229343FB60FB1D1B78D2
S315200001D0DB00FA681343FB60034BFA681A60C046DB
S315200001E0BD4604B080BDC0460038024080B582B00E
S315200001F000AF0200FB1D1A70034BFA1D12781A601D
S31520000200C046BD4602B080BD0000474280B582B0E0
S3152000021000AF0200FB1D1A700C4B00221A700B4B0C
S3152000022000221A70FB1D1B78012B02D0042B04D050
S3152000023007E0064B01221A7003E0044B05221A70D0
S31520000240C046C046BD4602B080BDC046703802409A
S3152000025080B582B000AF0200FB1D1A70034BFA1D59
S3152000026012781A60C046BD4602B080BD800E474255
S3152000027080B584B000AFF860B9607A603B607B6877
S315200002809A01BB681A433B685B08013B1B041A436F
S31520000290FB681A431100BB691A06034B0A435A60CE
S315200002A0C046BD4604B080BD0038024080B582B04D
S315200002B000AF0200FB1D1A70034BFA1D12781A605C
S315200002C0C046BD4602B080BD6000474280B582B0C0
S315200002D000AF786039607B689A013B681B07044948
S315200002E0134384228B50C046BD4602B080BDC04613
S315200002F00038024080B582B000AF0200FB1D1A70A4
S31520000300034BFA1D12781A60C046BD4602B080BD66
S315200003106800474280B584B000AFF860B9607A6063
S31520000320FB689A01BB681B061A437B681B070449B6
S31520000330134388228B50C046BD4604B080BDC046BC
S315200003400038024080B582B000AF0200FB1D1A7053
S31520000350034BFA1D12781A60C046BD4602B080BD16
S315200003607000474280B582B000AF0200FB1D1A70B4
S31520000370034BFA1D12781A60C046BD4602B080BDF6
S315200003804C00474280B584B000AF786039600023C6
S31520000390FB600A4B9B68FB60FB68094A1340FB60C5
S315200003A07A683B681343FA681343FB60034BFA6889
S315200003B09A60C046BD4604B080BDC04600380240A3
S315200003C0FFFF9FF880B584B000AF786039600023C6
S315200003D0FB600A4B9B68FB60FB685B015B09FB606B
S315200003E07A683B681343FA681343FB60034BFA6849
S315200003F09A60C046BD4604B080BDC0460038024063
S3152000040080B584B000AF78600023FB60084B9B6802
S31520000410FB60FB6803229343FB60FA687B68134307
S31520000420FB60034BFA689A60C046BD4604B080BDA7
S315200004300038024080B500AF044B9B68DBB20C222B
S315200004401340DBB21800BD4680BDC04600380240CE
S3152000045080B584B000AF78600023FB60084B9B68B2
S31520000460FB60FB68F0229343FB60FA687B681343CA
S31520000470FB60034BFA689A60C046BD4604B080BD57
S315200004800038024080B584B000AF78600023FB605E
S31520000490084B9B68FB60FB68074A1340FB60FA68C1
S315200004A07B681343FB60034BFA689A60C046BD46DF
S315200004B004B080BD00380240FFE3FFFF80B584B062
S315200004C000AF78600023FB60094B9B68FB60FB68EC
S315200004D0084A1340FB607B68DB00FA681343FB6025
S315200004E0034BFA689A60C046BD4604B080BDC0463C
S315200004F000380240FF1FFFFF80B588B000AF78604C
S315200005000023BB6100237B610023FB6102233B6147
S315200005100023FB600223BB60494B9B680C221340DF
S31520000520BB61BB69042B07D0082B09D0002B41D116
S315200005307B68444A1A6041E07B68434A1A603DE082
S315200005403F4B5B689B0D01221340FB603C4B5B6875
S315200005503F221340BB60FB68002B0DD0B9683A4898
S3152000056002F094F803001A00354B5B689B09DB0503
S31520000570DB0D5343FB610CE0B968324802F086F884
S3152000058003001A002E4B5B689B09DB05DB0D5343EA
S31520000590FB612B4B5B681B0C0322134001335B0072
S315200005A03B613969F86902F071F803001A007B682B
S315200005B01A6003E07B68234A1A60C046204B9B687A
S315200005C0F0221340BB61BB691B09BB611F4ABB6993
S315200005D0D3181B78DBB27B617B681A687B69DA40AB
S315200005E07B685A60164B9A68E0235B011340BB6117
S315200005F0BB699B0ABB61154ABB69D3181B78DBB262
S315200006007B617B685A687B69DA407B689A600C4B11
S315200006109A68E0231B021340BB61BB695B0BBB617D
S315200006200A4ABB69D3181B78DBB27B617B685A68A0
S315200006307B69DA407B68DA60C046BD4608B080BD7B
S31520000640003802400024F40040787D01DC4B002075
S3152000065080B584B000AF78600023FB607A68C02341
S315200006609B001A40C0239B009A420FD10D4B9B68DA
S31520000670FB60FB680C4A1340FB607B680B4A134007
S31520000680FA681343FB60074BFA689A60054B196FAB
S315200006907B681B051A0D034B0A431A67C046BD46E5
S315200006A004B080BD00380240FFFFE0FFFFFCFF0FD3
S315200006B080B582B000AF0200FB1D1A70034BFA1DF5
S315200006C012781A60C046BD4602B080BD3C0E474235
S315200006D080B582B000AF0200FB1D1A70034BFA1DD5
S315200006E012781A60C046BD4602B080BD400E474211
S315200006F080B582B000AF7860034B7A681A60C04636
S31520000700BD4602B080BDC0465C01474280B584B07C
S3152000071000AF78600023FB60094A8C23D358FB6026
S31520000720FB68084A1340FB60FA687B681343FB604A
S3152000073003498C22FB688B50C046BD4604B080BD61
S3152000074000380240FFFFCFFF80B584B000AF78604D
S315200007500023FB60094A8C23D358FB60FB68084AB8
S315200007601340FB60FA687B681343FB6003498C22C5
S31520000770FB688B50C046BD4604B080BD00380240A1
S31520000780FFFF3FFF80B584B000AF78600023FB6099
S315200007900A4A8C23D358FB60FB681F229343FB60D5
S315200007A07B68013BFA681343FB6004498C22FB6893
S315200007B08B50C046BD4604B080BDC04600380240BE
S315200007C080B584B000AF78600023FB600A4A8C2392
S315200007D0D358FB60FB68094A1340FB607B68013BEA
S315200007E01B02FA681343FB6003498C22FB688B507B
S315200007F0C046BD4604B080BD00380240FFE0FFFF82
S3152000080080B584B000AF78600023FB60094A8C2352
S31520000810D358FB60FB68084A1340FB60FA687B6884
S315200008201343FB6003498C22FB688B50C046BD46B0
S3152000083004B080BD00380240FFFFFCFF80B582B0C7
S3152000084000AF7860034B7A681A60C046BD4602B096
S3152000085080BDC046E011474280B582B000AF7860C7
S315200008600A00FB1C1A70FB1C1B78002B06D0094BB8
S31520000870196B084B7A680A431A6306E0054B1A6B14
S315200008807B68D943034B0A401A63C046BD4602B073
S3152000089080BDC0460038024080B582B000AF786087
S315200008A00A00FB1C1A70FB1C1B78002B06D0094B78
S315200008B0596B084B7A680A435A6306E0054B5A6B14
S315200008C07B68D943034B0A405A63C046BD4602B0F3
S315200008D080BDC0460038024080B582B000AF786047
S315200008E00A00FB1C1A70FB1C1B78002B06D0094B38
S315200008F0996B084B7A680A439A6306E0054B9A6B14
S315200009007B68D943034B0A409A63C046BD4602B072
S3152000091080BDC0460038024080B582B000AF786006
S315200009200A00FB1C1A70FB1C1B78002B06D0094BF7
S31520000930196C084B7A680A431A6406E0054B1A6C50
S315200009407B68D943034B0A401A64C046BD4602B0B1
S3152000095080BDC0460038024080B582B000AF7860C6
S315200009600A00FB1C1A70FB1C1B78002B06D0094BB7
S31520000970596C084B7A680A435A6406E0054B5A6C50
S315200009807B68D943034B0A405A64C046BD4602B031
S3152000099080BDC0460038024080B582B000AF786086
S315200009A00A00FB1C1A70FB1C1B78002B06D0094B77
S315200009B01969084B7A680A431A6106E0054B1A69D9
S315200009C07B68D943034B0A401A61C046BD4602B034
S315200009D080BDC0460038024080B582B000AF786046
S315200009E00A00FB1C1A70FB1C1B78002B06D0094B37
S315200009F05969084B7A680A435A6106E0054B5A69D9
S31520000A007B68D943034B0A405A61C046BD4602B0B3
S31520000A1080BDC0460038024080B582B000AF786005
S31520000A200A00FB1C1A70FB1C1B78002B06D0094BF6
S31520000A309969084B7A680A439A6106E0054B9A69D8
S31520000A407B68D943034B0A409A61C046BD4602B033
S31520000A5080BDC0460038024080B582B000AF7860C5
S31520000A600A00FB1C1A70FB1C1B78002B06D0094BB6
S31520000A70196A084B7A680A431A6206E0054B1A6A15
S31520000A807B68D943034B0A401A62C046BD4602B072
S31520000A9080BDC0460038024080B582B000AF786085
S31520000AA00A00FB1C1A70FB1C1B78002B06D0094B76
S31520000AB0596A084B7A680A435A6206E0054B5A6A15
S31520000AC07B68D943034B0A405A62C046BD4602B0F2
S31520000AD080BDC0460038024080B582B000AF786045
S31520000AE00A00FB1C1A70FB1C1B78002B06D0094B36
S31520000AF0196D084B7A680A431A6506E0054B1A6D8C
S31520000B007B68D943034B0A401A65C046BD4602B0EE
S31520000B1080BDC0460038024080B582B000AF786004
S31520000B200A00FB1C1A70FB1C1B78002B06D0094BF5
S31520000B30596D084B7A680A435A6506E0054B5A6D8B
S31520000B407B68D943034B0A405A65C046BD4602B06E
S31520000B5080BDC0460038024080B582B000AF7860C4
S31520000B600A00FB1C1A70FB1C1B78002B06D0094BB5
S31520000B70996D084B7A680A439A6506E0054B9A6D8B
S31520000B807B68D943034B0A409A65C046BD4602B0EE
S31520000B9080BDC0460038024080B582B000AF786084
S31520000BA00A00FB1C1A70FB1C1B78002B06D0094B75
S31520000BB0196E084B7A680A431A6606E0054B1A6EC8
S31520000BC07B68D943034B0A401A66C046BD4602B02D
S31520000BD080BDC0460038024080B582B000AF786044
S31520000BE00A00FB1C1A70FB1C1B78002B06D0094B35
S31520000BF0596E084B7A680A435A6606E0054B5A6EC8
S31520000C007B68D943034B0A405A66C046BD4602B0AC
S31520000C1080BDC0460038024080B582B000AF0200D9
S31520000C20FB1D1A70FB1D1B78012B06D1084B1A6F72
S31520000C30074B08210A431A6705E0054B1A6F044B38
S31520000C4008218A431A67C046BD4602B080BDC04609
S31520000C500038024080B582B000AF0200FB1D1A703A
S31520000C60BB1D0A1C1A70BB1D1B78002B09D00C4B10
S31520000C701B78DAB20A49FB1D1B781343DBB20B70D3
S31520000C800AE0074B1B78DBB2FA1D1278D243D2B2A8
S31520000C9003491340DBB20B70C046BD4602B080BD8F
S31520000CA00D38024080B586B000AF0200FB1D1A70D9
S31520000CB00023FB6000237B611323FB1800221A709C
S31520000CC0FB1D1B785B09DBB2FB60FB68012B03D1A4
S31520000CD0144B1B687B6109E0FB68022B03D1114B87
S31520000CE01B6F7B6102E00F4B5B6F7B61FB1D1B78EB
S31520000CF01F221340FB607A69FB68DA401300012249
S31520000D00134004D01323FB1801221A7003E0132387
S31520000D10FB1800221A701323FB181B781800BD46F7
S31520000D2006B080BD0038024080B500AF044B5A6F34
S31520000D30034B802149040A435A67C046BD4680BDFD
S31520000D400038024080B584B000AF0200FB1D1A7047
S31520000D500F23FB1800221A700A4BDB68FA1D127843
S31520000D60134004D00F23FB1801221A7003E00F232F
S31520000D70FB1800221A700F23FB181B781800BD469B
S31520000D8004B080BD0038024080B582B000AF0200BA
S31520000D90FB1D1A70034AFB1D1B781370C046BD4607
S31520000DA002B080BD0E38024080B582B000AF01216E
S31520000DB00120FFF751FD3B00180000F0CFFA3B0061
S31520000DC0AA221A603B0001221A713B0000229A7166
S31520000DD03B000E4A1900100000F034FA3B001800C0
S31520000DE000F0BCFA3B0055221A603B0000221A7123
S31520000DF03B000122DA713B00044A1900100000F082
S31520000E0021FAC046BD4602B080BDC0460000024061
S31520000E1080B500AF034B1B685A1C024B1A60C046B4
S31520000E20BD4680BD004B002080B582B000AF064B8A
S31520000E30064A1A60064B1800FFF71AF903007B6072
S31520000E40C046BD4602B080BD3CC00120110E002028
S31520000E5040900200F0B5BBB000AFFFF7A5FFFFF74B
S31520000E60E3FFC4217B18944A31CA31C331CA31C346
S31520000E7012681A60A8203B18904A70CA70C370CABC
S31520000E8070C312681A608C243B198D4A62CA62C3E9
S31520000E9062CA62C312681A6070257B19894A43CADE
S31520000EA043C343CA43C312681A603B00C4217A185D
S31520000EB043CA43C343CA43C312681A603B00A820EF
S31520000EC03A181C3343CA43C343CA43C312681A6041
S31520000ED03B003A19383313CA13C313CA13C3126813
S31520000EE01A603B007A19543313CA13C313CA13C3A7
S31520000EF012681A600023E422BA181360D5E039007C
S31520000F00E423FB181A681300DB009B1A9B00CB18FE
S31520000F1014331B689BB26C4A1900100000F05BFA70
S31520000F20031E0CD03900E423FB181A681300DB00DB
S31520000F309B1A9B00CB18043300221A6026E0390046
S31520000F40E423FB181A681300DB009B1A9B00CB18BE
S31520000F5004331B68002B0DD15C4B1B68180039002D
S31520000F60E423FB181A681300DB009B1A9B00CB189E
S31520000F70183318603900E423FB181A681300DB00C5
S31520000F809B1A9B00CB18043301221A600023E0220F
S31520000F90BA1813607DE03900E023FB181A681300A5
S31520000FA0DB009B1A9B00CB1804331B68012B1DD139
S31520000FB03900E0243B191A681300DB009B1A9B00BA
S31520000FC0CB181833196838003B191A681300DB0050
S31520000FD09B1A9B00C31808331B781A003C4B5343BB
S31520000FE0CB181A00394B1B689A4210D33900E023DC
S31520000FF0FB181A681300DB009B1A9B00CB181033D2
S315200010001B689BB2304A1900100000F04BFA3900D9
S31520001010E023FB181A681300DB009B1A9B00CB18F1
S3152000102004331B68012B2ED13900E0243B191A68A2
S315200010301300DB009B1A9B00CB1818331968380065
S315200010403B191A681300DB009B1A9B00C31809334F
S315200010501B781A001E4B5343CB181A001B4B1B68D8
S315200010609A4210D23900E023FB181A681300DB00DD
S315200010709B1A9B00CB1810331B689BB2124A19008F
S31520001080100000F000FAE022BB181B680133BA18E2
S315200010901360E023FB181B686F2B00D87BE7E42244
S315200010A0BB181B680133BA181360E423FB181B68AE
S315200010B06F2B00D823E71DE7205000203C5000204E
S315200010C0585000207450002000000240004B0020A1
S315200010D01027000080B582B000AF78607B684E4A4A
S315200010E0934208D101210120FFF756FC002101205F
S315200010F0FFF752FC8CE07B68484A934208D10121D5
S315200011000220FFF749FC00210220FFF745FC7FE083
S315200011107B68434A934208D101210420FFF73CFC17
S3152000112000210420FFF738FC72E07B683D4A934299
S3152000113008D101210820FFF72FFC00210820FFF706
S315200011402BFC65E07B68384A934208D101211020A8
S31520001150FFF722FC00211020FFF71EFC58E07B68D9
S31520001160324A934208D101212020FFF715FC0021A5
S315200011702020FFF711FC4BE07B682D4A934208D1D3
S3152000118001214020FFF708FC00214020FFF704FC46
S315200011903EE07B68274A934208D101218020FFF751
S315200011A0FBFB00218020FFF7F7FB31E07B68224A1A
S315200011B093420CD180235B0001211800FFF7ECFB42
S315200011C080235B0000211800FFF7E6FB20E07B6808
S315200011D01A4A93420CD180239B0001211800FFF765
S315200011E0DBFB80239B0000211800FFF7D5FB0FE0D7
S315200011F07B68134A93420BD18023DB000121180020
S31520001200FFF7CAFB8023DB0000211800FFF7C4FB91
S31520001210C046BD4602B080BD000002400004024028
S3152000122000080240000C0240001002400014024058
S3152000123000180240001C0240002002400024024008
S315200012400028024080B586B000AF78603960002360
S315200012507B6100233B610023FB6000237B6176E0FA
S3152000126001227B699A4013003B613B681A683B69FF
S315200012701340FB60FA683B699A4265D17B681B681C
S315200012807A695200032191400A00D2431A407B68B2
S315200012901A607B681A683B681B7919007B695B00BA
S315200012A099400B001A437B681A603B681B79012B17
S315200012B003D03B681B79022B2ED17B689B687A6909
S315200012C05200032191400A00D2431A407B689A605B
S315200012D07B689A683B685B7919007B695B0099405B
S315200012E00B001A437B689A607B685B687A6992B2C6
S315200012F0110001228A40D2431A407B685A607B68DB
S315200013005B683A68927911007A6992B291400A0034
S3152000131092B21A437B685A607B68DB687A6992B21C
S315200013205200032191400A00D2431A407B68DA60BA
S315200013307B68DA683B68DB7919007B695B0099403A
S315200013400B001A437B68DA607B6901337B617B691A
S315200013500F2B85D9C046BD4606B080BD80B582B06C
S3152000136000AF78607B68094A1A607B6800221A7190
S315200013707B6800225A717B6800229A717B68002262
S31520001380DA71C046BD4602B080BDC046FFFF0000F0
S3152000139080B584B000AF78600A00BB1C1A80802319
S315200013A05B02FB60BB1C1A88FB681343FB60FA6870
S315200013B07B68DA61BB1C1A887B68DA61FA687B680D
S315200013C0DA617B68DB69FB607B68DB69FB60C046B2
S315200013D0BD4604B080BD80B584B000AF78600A00F9
S315200013E0BB1C1A800F23FB1800221A707B681B690E
S315200013F0BA1C1288134004D00F23FB1801221A703E
S3152000140003E00F23FB1800221A700F23FB181B780A
S315200014101800BD4604B080BD80B582B000AF7860AC
S315200014207B681B699BB21800BD4602B080BD80B5A3
S3152000143084B000AF78600A00BB1C1A800F23FB180B
S3152000144000221A707B685B69BA1C1288134004D08C
S315200014500F23FB1801221A7003E00F23FB1800222A
S315200014601A700F23FB181B781800BD4604B080BDE8
S3152000147080B582B000AF78607B685B699BB218004C
S31520001480BD4602B080BD80B582B000AF78600A004C
S31520001490BB1C1A807B68BA1C12881A83C046BD46BC
S315200014A002B080BD80B582B000AF78600A00BB1C58
S315200014B01A807B68BA1C12885A83C046BD4602B081
S315200014C080BD80B582B000AF786008001100BB1CDB
S315200014D0021C1A807B1C0A1C1A707B1C1B78002B92
S315200014E004D07B68BA1C12881A8303E07B68BA1C76
S315200014F012885A83C046BD4602B080BD80B582B0F0
S3152000150000AF78600A00BB1C1A80BB1C1A887B6857
S315200015105A61C046BD4602B080BD80B582B000AFDC
S3152000152078600A00BB1C1A807B685A69BB1C1B8822
S315200015305A407B685A61C046BD4602B080BD80B520
S3152000154084B000AF786008001100BB1C021C1A8012
S315200015507B1C0A1C1A700023FB600023BB607B1CCB
S315200015601A78BB1C1B8807210B409B009A4013004E
S31520001570FB60BB1C1B88DB089BB21A007B68083209
S315200015809200D358BA1C128807210A4092000F21D4
S3152000159091400A00D243B91C0988C90889B20800BB
S315200015A01A4011007B68020008329200D150BB1C01
S315200015B01B88DB089BB21A007B6808329200D3583E
S315200015C0FA681343BB60BB1C1B88DB089BB21A005E
S315200015D07B6808329200B968D150C046BD4604B037
S315200015E080BDC04680B582B000AF7860044B7A6873
S315200015F004490A43DA60C046BD4602B080BDC046F3
S3152000160000ED00E00000FA05B0B584B000AF7860C8
S315200016100F23FB1800221A700E23FB1800221A70C3
S315200016200D23FB180F221A707B68DB78002B4DD018
S31520001630314BDB68DB431B0ADAB20F203B1807214C
S315200016400A401A700E257B193A18127804218A1A34
S315200016501A700D243B191A7801007B181B781A4141
S315200016603B191A707B685B781A007B191B789A40A5
S3152000167008007B181A707B689B783A1912781340F9
S31520001680D9B23B183A1812780A431A703B183A18FE
S31520001690127812011A70194A7B681B781900C02328
S315200016A09B005218D3183A1812781A707B681B7848
S315200016B01A001F23134011497A6812785209D2B2B0
S315200016C0100001229A4083005A5010E07B681B7854
S315200016D01A001F23134009497A6812785209D2B298
S315200016E0100001229A40030020339B005A50C04626
S315200016F0BD4604B0B0BDC04600ED00E000E100E00C
S3152000170080B582B000AF786039603B68054A1340E7
S315200017101900054B7A680A439A60C046BD4602B056
S3152000172080BDC04680FFFF1F00ED00E080B582B07F
S3152000173000AF0200FB1D1A70BB1D0A1C1A70BB1DD0
S315200017401B78002B07D00A4B1969FB1D1A78084B0A
S315200017500A431A6107E0064B1A69FB1D1B78D94319
S31520001760034B0A401A61C046BD4602B080BDC04642
S3152000177000ED00E080B582B000AF78607B68042B76
S3152000178006D1084B1A68074B04210A431A6005E064
S31520001790044B1A68034B04218A431A60C046BD468F
S315200017A002B080BD10E000E080B582B000AF786066
S315200017B07B686422002199547B6865220021995414
S315200017C07B68662200219954C046BD4602B080BD82
S315200017D080B582B000AF78600A00FB1C1A707B6867
S315200017E064229B5C642B01D100231EE07B6865226A
S315200017F09B5C5A1CD0B27A686521505419007B68CC
S31520001800FA1C12785A547B6864229B5C0133D9B245
S315200018107B68642299547B6865229B5C642B03D188
S315200018207B6865220021995401231800BD4602B029
S3152000183080BD80B582B000AF786039607B68642255
S315200018409B5C002B01D100231EE07B6866229B5CFB
S315200018505A1CD0B27A68662150541A007B689A5C6A
S315200018603B681A707B6864229B5C013BD9B27B681B
S31520001870642299547B6866229B5C642B03D17B6827
S3152000188066220021995401231800BD4602B080BD6E
S3152000189080B582B000AF78607B68414A934208D118
S315200018A001211020FFF7F8F800211020FFF7F4F8A7
S315200018B071E07B683B4A93420CD180239B02012135
S315200018C01800FFF7C9F880239B0200211800FFF7B4
S315200018D0C3F860E07B68344A93420CD18023DB0254
S315200018E001211800FFF7B8F88023DB020021180039
S315200018F0FFF7B2F84FE07B682C4A93420CD1802345
S315200019001B0301211800FFF7A7F880231B030021E2
S315200019101800FFF7A1F83EE07B68254A93420CD1D8
S3152000192080235B0301211800FFF796F880235B03D1
S3152000193000211800FFF790F82DE07B681D4A93429E
S3152000194008D101212020FFF7A7F800212020FFF74A
S31520001950A3F820E07B68184A93420CD18023DB054C
S3152000196001211800FFF778F88023DB0500211800F5
S31520001970FFF772F80FE07B68104A93420BD1802361
S315200019801B0601211800FFF767F880231B0600219C
S315200019901800FFF761F8C046BD4602B080BDC046BC
S315200019A0001001400044004000480040004C004028
S315200019B0005000400014014000780040007C0040A8
S315200019C080B58AB000AF7860396000237B6200233F
S315200019D03B620023FB610023BB617B681B8A9BB2B1
S315200019E07B627B6A564A13407B623B68DB881A001F
S315200019F07B6A13437B627B6A9AB27B681A827B6816
S31520001A009B899BB27B627B6A4E4A13407B623B6812
S31520001A109A883B681B8913439AB23B685B891343B8
S31520001A209BB21A007B6A13437B627B6A9AB27B68FD
S31520001A309A817B689B8A9BB27B627B6A424A13406F
S31520001A407B623B689B891A007B6A13437B627B6AB5
S31520001A509AB27B689A820823FB181800FEF74CFD81
S31520001A607B683A4A934203D07B68394A934204D131
S31520001A700823FB18DB683B6203E00823FB189B68FE
S31520001A803B627B689B899BB21BB2002B0FDA3A6ABA
S31520001A9013009B009B189A009A183B681B685B00F2
S31520001AA01900100000F0F2FD0300FB610EE03A6A17
S31520001AB013009B009B189A009A183B681B689B0092
S31520001AC01900100000F0E2FD0300FB61FB696421B0
S31520001AD0180000F0DBFD03001B017B627B6A1B09FB
S31520001AE064225343FA69D31ABB617B689B899BB2F4
S31520001AF01BB2002B0EDABB69DB00323364211800DF
S31520001B0000F0C4FD03001A00072313407A6A13432A
S31520001B107B620DE0BB691B0132336421180000F0A3
S31520001B20B5FD03001A000F2313407A6A13437B6224
S31520001B307B6A9AB27B681A81C046BD460AB080BDD0
S31520001B40FFCFFFFFF3E9FFFFFFFCFFFF001001407F
S31520001B500014014080B582B000AF78607B68962281
S31520001B6092011A607B6800229A807B680022DA80C4
S31520001B707B6800221A817B680C225A817B680022AE
S31520001B809A81C046BD4602B080BD80B584B000AF04
S31520001B90786039600023FB607B681B8A9BB2FB6000
S31520001BA0FB680E4A1340FB603B681A883B685B88DB
S31520001BB013439AB23B689B8813439AB23B68DB88EF
S31520001BC013439BB21A00FB681343FB60FB689AB26F
S31520001BD07B681A82C046BD4604B080BDFFF0FFFF79
S31520001BE080B582B000AF78607B6800221A807B685F
S31520001BF000225A807B6800229A807B680022DA8045
S31520001C00C046BD4602B080BD80B582B000AF7860C8
S31520001C100A00FB1C1A70FB1C1B78002B09D07B6862
S31520001C209B899BB28022920113439AB27B689A8148
S31520001C3007E07B689B899BB2044A13409AB27B6873
S31520001C409A81C046BD4602B080BDC046FFDFFFFF79
S31520001C5080B582B000AF78600A00FB1C1A707B68E2
S31520001C601B8B9BB2FF2293439AB27B681A837B68B5
S31520001C701B8B9AB2FB1C1B789BB213439AB27B68D0
S31520001C801A83C046BD4602B080BD80B582B000AF83
S31520001C9078600A00FB1C1A70FB1C1B78002B08D0EE
S31520001CA07B689B899BB2094A13439AB27B689A81C7
S31520001CB007E07B689B899BB25B045B0C9AB27B68CE
S31520001CC09A81C046BD4602B080BDC0460080FFFF57
S31520001CD080B582B000AF78600A00FB1C1A70FB1C2E
S31520001CE01B78002B09D07B689B8A9BB2802212012D
S31520001CF013439AB27B689A8207E07B689B8A9BB2E1
S31520001D00044A13409AB27B689A82C046BD4602B006
S31520001D1080BDC046FFF7FFFF80B582B000AF786078
S31520001D200A00BB1C1A80BB1C1B88DB05DB0D9AB284
S31520001D307B689A80C046BD4602B080BD80B582B021
S31520001D4000AF78607B689B889BB2DB05DB0D9BB27E
S31520001D501800BD4602B080BD80B582B000AF786065
S31520001D600A00FB1C1A707B681B8A9BB20F229343C6
S31520001D709AB27B681A827B681B8A9AB2FB1C1B78F4
S31520001D809BB213439AB27B681A82C046BD4602B004
S31520001D9080BD80B582B000AF78600A00FB1C1A7047
S31520001DA0FB1C1B78002B08D07B689B899BB20222E8
S31520001DB013439AB27B689A8107E07B689B899BB222
S31520001DC0022293439AB27B689A81C046BD4602B0EE
S31520001DD080BD80B582B000AF78600A00BB1C1A8037
S31520001DE07B689B899BB2094A13409AB27B689A8189
S31520001DF07B689B899AB2BB1C1B8813439AB27B686B
S31520001E009A81C046BD4602B080BDC046FFF7FFFF9F
S31520001E1080B582B000AF78600A00BB1C1A807B6850
S31520001E201B8A9BB2202293439AB27B681A827B68D4
S31520001E301B8A9AB2BB1C1B8813439AB27B681A82F0
S31520001E40C046BD4602B080BD80B582B000AF786086
S31520001E500A00FB1C1A70FB1C1B78002B09D07B6820
S31520001E601B8A9BB28022D20113439AB27B681A82C4
S31520001E7007E07B681B8A9BB2044A13409AB27B68B0
S31520001E801A82C046BD4602B080BDC046FFBFFFFFD6
S31520001E9080B582B000AF78607B689B899BB20122B7
S31520001EA013439AB27B689A81C046BD4602B080BD74
S31520001EB080B582B000AF78600A00FB1C1A70FB1C4C
S31520001EC01B78002B08D07B689B8A9BB20822134381
S31520001ED09AB27B689A8207E07B689B8A9BB208222B
S31520001EE093439AB27B689A82C046BD4602B080BDB3
S31520001EF080B582B000AF78600A00FB1C1A707B6840
S31520001F001B8B9BB2FF2213409AB27B681A837B6895
S31520001F101B8B9AB2FB1C1B789BB21B029BB21343F2
S31520001F209AB27B681A83C046BD4602B080BD80B592
S31520001F3082B000AF78600A00FB1C1A70FB1C1B786D
S31520001F40002B08D07B689B8A9BB2202213439AB22F
S31520001F507B689A8207E07B689B8A9BB22022934308
S31520001F609AB27B689A82C046BD4602B080BD80B5D3
S31520001F7082B000AF78600A00FB1C1A70FB1C1B782D
S31520001F80002B08D07B689B8A9BB2102213439AB2FF
S31520001F907B689A8207E07B689B8A9BB210229343D8
S31520001FA09AB27B689A82C046BD4602B080BD80B593
S31520001FB082B000AF78600A00BB1C1A807B689B8ABF
S31520001FC09BB2042293439AB27B689A827B689B8A4F
S31520001FD09AB2BB1C1B8813439AB27B689A82C0466E
S31520001FE0BD4602B080BD80B582B000AF78600A00E1
S31520001FF0FB1C1A70FB1C1B78002B08D07B689B8A65
S315200020009BB2022213439AB27B689A8207E07B68CE
S315200020109B8A9BB2022293439AB27B689A82C046DD
S31520002020BD4602B080BD80B582B000AF78600800A2
S315200020301100BB1C021C1A807B1C0A1C1A707B1CFC
S315200020401B78002B09D07B689B8A9AB2BB1C1B8805
S3152000205013439AB27B689A820AE07B689B8A9BB27A
S31520002060BA1C1288D24392B213409AB27B689A82E3
S31520002070C046BD4602B080BD80B586B000AF786050
S3152000208008001100BB1C021C1A807B1C0A1C1A703B
S3152000209000233B610023FB600023BB6000237B61A0
S315200020A07B687B61BB1C1B88DBB25B09DBB23B61B7
S315200020B0BB1C1B881F221340FB600122FB689A4031
S315200020C01300BB603B69012B03D17B690C337B6119
S315200020D009E03B69022B03D17B6910337B6102E067
S315200020E07B6914337B617B1C1B78002B06D07B69B4
S315200020F019687B69BA680A431A6006E07B691A6820
S31520002100BB68D9437B690A401A60C046BD4606B003
S3152000211080BD80B584B000AF78600A00BB1C1A80F1
S315200021200F23FB1800221A707B681B889BB2BA1CEF
S31520002130128813409BB2002B04D00F23FB180122D8
S315200021401A7003E00F23FB1800221A700F23FB18C6
S315200021501B781800BD4604B080BD80B582B000AFA4
S3152000216078600A00BB1C1A80BB1C1B88DB439AB212
S315200021707B681A80C046BD4602B080BD80B586B059
S3152000218000AF78600A00BB1C1A800023FB60002386
S315200021907B610023BB601323FB1800221A70BB1C33
S315200021A01B88DBB25B09DBB2BB60BB1C1B881F2212
S315200021B013407B6101227B699A4013007B61BB68D7
S315200021C0012B07D17B689B899BB21A007B69134040
S315200021D07B6111E0BB68022B07D17B681B8A9BB20F
S315200021E01A007B6913407B6106E07B689B8A9BB261
S315200021F01A007B6913407B61BB1C1B881B0A9BB2A0
S31520002200FB600122FB689A401300FB607B681B88F9
S315200022109BB21A00FB681340FB607B69002B07D03A
S31520002220FB68002B04D01323FB1801221A7003E04D
S315200022301323FB1800221A701323FB181B7818008F
S31520002240BD4606B080BD80B584B000AF78600A0078
S31520002250BB1C1A800E217B1800221A800C203B18EA
S3152000226000221A807B18BA1C1288120A1A807B1840
S315200022701B8801229A403B181A803B181B88DB4397
S315200022809AB27B681A80C046BD4604B080BDC0465F
S3152000229090B583B000AF1F4A1F4B11001800FFF7FF
S315200022A06DFF0300012B0BD11C4B1C681A4B180029
S315200022B0FFF744FD0300DBB219002000FFF788FA80
S315200022C0174A154B11001800FFF758FF0300012B82
S315200022D01CD1144B1B68FC1DBA1D11001800FFF7FA
S315200022E0A8FA03002370FB1D1B78002B08D0BB1D0A
S315200022F01B789BB2084A19001000FFF70DFD05E078
S315200023000749054B00221800FFF7B6FEC046BD461A
S3152000231003B090BD2505000000100140084B0020A9
S3152000232027070000044B002090B589B000AF424B30
S31520002330424A1A60424B434A1A603F4B1B681800B8
S31520002340FFF732FA3E4B1B681800FFF72DFA0121E2
S315200023501020FEF701FB01210120FEF77DFA8023E4
S315200023609B00394807221900FFF7E9F88023DB0094
S31520002370354807221900FFF7E2F818217B180222B8
S315200023801A717B1803225A717B1800229A717B18C6
S315200023900122DA717B18802292001A600C007B18C9
S315200023A0294A19001000FEF74DFF21007B188022D4
S315200023B0D2001A607B18244A19001000FEF742FF4B
S315200023C008217B18E12252021A607B1800229A808B
S315200023D07B180022DA807B1800221A817B180022C3
S315200023E09A817B180C225A817B18184A19001000F2
S315200023F0FFF7E6FA3B1D25221A703B1D00225A7074
S315200024003B1D00229A703B1D0122DA703B1D1800ED
S31520002410FFF7FAF80E4B0F4A1A600C4B01211800F1
S31520002420FFF7F2FB0C49094B01221800FFF724FEA7
S31520002430C046BD4609B090BD044B00200C4B002081
S31520002440084B0020744B0020000002400010014081
S31520002450D4C00120912200202505000080B582B03D
S3152000246000AF0200FB1D1A700B4B1A68FB1D1B7870
S3152000247019001000FFF7ACF9031E07D00749084BD7
S3152000248001221800FFF7F8FD012300E000231800C1
S31520002490BD4602B080BDC046044B00202707000081
S315200024A00010014080B582B000AF78600EE07B68F6
S315200024B05A1C7A601B78180000F0AAF8030018004E
S315200024C0FFF7CCFF031E01D1002304E07B681B78B5
S315200024D0002BECD101231800BD4602B080BDB0B55B
S315200024E086B000AF78607B68002B17D0786800F044
S315200024F0F5FC03000C001800210001F0FFFF03008B
S315200025000C001800210001F065FF03000C001800E4
S31520002510210000F047F90300DAB200E0012215217C
S315200025207B181A701723FB187A1812781A701EE077
S315200025307B680A21180000F02FF90B00DAB2172564
S315200025407B191B785C1E100000F04EF803001A0061
S315200025500823FB181A557B680A21180000F096F804
S3152000256003007B607B191A787B19013A1A701723AE
S31520002570FB181B78002BDBD11623FB1800221A70C0
S3152000258012E01623FB181B780822BA18D35C180011
S31520002590FFF764FF031E01D100230EE016217B18EE
S315200025A01A787B1801321A701623FA181523FB188D
S315200025B012781B789A42E4D101231800BD4606B052
S315200025C0B0BD80B582B000AF7860064B1B687A68D4
S315200025D011001800FFF72DF903001800BD4602B0C0
S315200025E080BDC046084B002080B582B000AF0200F7
S315200025F0FB1D1A70FB1D1B78092B04D8FB1D1B78AD
S315200026001033DBB200E01F231800BD4602B080BDA8
S3152000261080B582B000AF0200FB1D1A70FB1D1B782F
S315200026202A2B01D10A232DE0FB1D1B78202B01D15B
S31520002630022327E0FB1D1B782F2B08D9FB1D1B78B7
S31520002640392B04D8FB1D1B78203BDBB21AE0FB1D7F
S315200026501B78402B08D9FB1D1B785A2B04D8FB1D51
S315200026601B78203BDBB20DE0FB1D1B78602B08D9C5
S31520002670FB1D1B787A2B04D8FB1D1B784033DBB25D
S3152000268000E01F231800BD4602B080BD002243088B
S315200026908B4274D303098B425FD3030A8B4244D304
S315200026A0030B8B4228D3030C8B420DD3FF22090246
S315200026B012BA030C8B4202D31212090265D0030B05
S315200026C08B4219D300E0090AC30B8B4201D3CB03FB
S315200026D0C01A5241830B8B4201D38B03C01A52413D
S315200026E0430B8B4201D34B03C01A5241030B8B423F
S315200026F001D30B03C01A5241C30A8B4201D3CB022A
S31520002700C01A5241830A8B4201D38B02C01A52410E
S31520002710430A8B4201D34B02C01A5241030A8B4211
S3152000272001D30B02C01A5241CDD2C3098B4201D329
S31520002730CB01C01A524183098B4201D38B01C01AA7
S31520002740524143098B4201D34B01C01A524103091E
S315200027508B4201D30B01C01A5241C3088B4201D3CD
S31520002760CB00C01A524183088B4201D38B00C01A7A
S31520002770524143088B4201D34B00C01A5241411AA1
S3152000278000D20146524110467047FFE701B50020AE
S3152000279000F006F802BDC0460029F7D076E770475C
S315200027A07047C04670B500220C4B04000D0000F0A7
S315200027B0FBFB002804D12000290000F059FB70BD46
S315200027C0064B00222000290000F00AF800F050FBFA
S315200027D080231B069C466044F1E7C0460000E0418A
S315200027E0F8B557464E464546DE460C000903E0B589
S315200027F0490A460F5F0031431E03DB0F760A9B46CC
S31520002800530F3343C84E6500C000E40FD2006D0D50
S31520002810A24681467F0D9C469046B74200D1B9E03C
S315200028205B46012673409B46EE1BA34500D183E001
S31520002830002E63DD002F00D0B1E06346134300D1A4
S3152000284023E1731E002B00D0BAE1861A6346B042FC
S3152000285080410125C91A4042091A0B0200D447E1DA
S3152000286049024B0A98464346002B00D189E140464F
S3152000287000F0A4FB0300083B1F2B00DD7CE1202297
S315200028803000D21A4146D040994002009E400A4369
S315200028909D4200DD6AE15D1B6B1C1F2B00DD94E170
S315200028A0202110003500C91A8E40DA408840DD40CC
S315200028B0711E8E411100072228430025064332400F
S315200028C0002A09D00F233340042B05D0331DB342F1
S315200028D0B641764289191E000B0200D43DE26A1CDD
S315200028E0914B55056D0D9A4200D119E18F4AF60894
S315200028F00A40570752023743120B9BE0002E00D0A6
S31520002900C5E06E1C7605760D012E00DC48E1674693
S31520002910861ACB1BB042BF417F42B8461F004346B2
S31520002920FF1A3B00B8461B0200D55FE137439AD118
S3152000293000220024002579E0002E00DCFAE0002F9A
S3152000294000D18DE0784B9D4267D0802367461B04DB
S315200029501F43BC46382E00DC52E1634613435A1E01
S3152000296093411E1886428041404209180B0200D42A
S31520002970BEE06D4B01359D4200D1D2E06B4A730813
S315200029800A4001210E401E435108D30707221E4349
S31520002990324095E71E00164300D045E740E7624BDC
S315200029A09D423AD0802367461B041F43BC46382EDF
S315200029B000DDEBE01F2E00DC3AE133006746203BCA
S315200029C0DF403B00202E05D04027BF1B6646BE4079
S315200029D0324390464646721E96413343DAE0002B38
S315200029E000D114E26346134300D168E180234E07E9
S315200029F0C008C9081B030643194208D06046C00810
S31520002A00184204D163460100D2085E071643F3003C
S31520002A109946C900720F444D11434B46DE08424B7E
S31520002A204F073743CA089D4200D16EE012036D0559
S31520002A30120B6D0D00211203130B0A0D12051A43FA
S31520002A403B4B2D0513402B435B00E4075B082343D8
S31520002A50380019003CBC90469946A246AB46F8BDC4
S31520002A606346134311D0731E002B00D007E186184E
S31520002A708642804161444042091801250B0237D520
S31520002A8002257BE73E00614691463500C5E75C4658
S31520002A90002D00D0E1E00B000343F3D0731C00D1DE
S31520002AA0ACE1214B9F4200D13AE1F343382B00DDC4
S31520002AB06FE11F2B00DD8CE120250E00ED1AAE40C4
S31520002AC0B0460600AA46DE40454635432E0055460A
S31520002AD0D940A8406346451EA8415B1A9C46304310
S31520002AE0161AB242924163465242991A3D00B4E602
S31520002AF007223240002A00D0E4E60B4BF6084F07A7
S31520002B003743CA089D4200D090E73B00134300D1CB
S31520002B10A6E180231B031A431203120B024D89E7F9
S31520002B2015000022002785E7FF070000FFFF7FFF33
S31520002B30FFFF0F80002E00D0C7E06B1C5E05760DD0
S31520002B40012E00DCF0E0C84DAB4200D1B9E085187B
S31520002B500A00854289416244494251180722CE071C
S31520002B606D082E43490832401D00A9E6BF49ED1ADB
S31520002B70114007223240A3E6320028388240002640
S31520002B8086E6300000F01AFA203073E663461343D7
S31520002B905A1E9341C61AB04280414042091A5CE649
S31520002BA00E00674606431743002D5ED1002E00D047
S31520002BB0F3E0002F00D11EE15C46614691462CE7EA
S31520002BC0A94FBE427BD01E00F1E610001F3DE84013
S31520002BD0202B03D04021CB1A9A401643731E9E41C8
S31520002BE00722064332400021002583E7161A634652
S31520002BF0B2428041591A40420B1A98465C4632E648
S31520002C001F2E00DDABE02027BB1B9A4663465746A6
S31520002C10BB40994613004F46F3401F433B0057469F
S31520002C20BA40571EBA4113436246F240891898E6C5
S31520002C302027BB1B9A4663465746BB40994613003E
S31520002C404F46F3401F433B005746BA40571EBA41F2
S31520002C5013436246F240891A9CE7834B9F425FD01A
S31520002C6080252D047342294320E7002E0CD1002F06
S31520002C7000D1D0E05C46614691467B4DCDE67A4F49
S31520002C80BE421CD01E0065E6002F18D0C0084E0795
S31520002C9006438020C9080003014208D06346DC08A9
S31520002CA0044204D12100DA46D2085E071643F30017
S31520002CB0994601245346C900720F11431C406A4DA0
S31520002CC0ABE61D0000220027B4E6002D59D10B00EB
S31520002CD0034300D1D6E6731C00D1B2E0624B9F427B
S31520002CE01ED0F343382B6FDC1F2B00DD97E0202509
S31520002CF00E00ED1AAE40B0460600AA46DE40454616
S31520002D0035432E005546A840D940451EA8418C443F
S31520002D100643B61896429241514261443D0025E64B
S31520002D203D006146914678E60B000343002D00D016
S31520002D3055E6002BF5D06346134300D16DE6861881
S31520002D408642804161444042091800220B0200D489
S31520002D50D0E6464B01351940B2E5B1465DE6330073
S31520002D606746203BDF403B00202E05D04027BF1B77
S31520002D706646BE40324390464646721E96413343CF
S31520002D80EFE5394B9F42CBD080252D047342294352
S31520002D90A8E70843411E8841A2E6002F00D13CE661
S31520002DA06346861ACF1AB0429B415B42FB1A98466D
S31520002DB01B024ED5161A6346B2429241591A524206
S31520002DC0891A5C4600227BE501430E00711E8E4166
S31520002DD09FE71D000E00203DEE40B046202B04D07C
S31520002DE04025EB1A99400843814648464346411EF2
S31520002DF08841184374E60022002417E6161A634613
S31520002E00B2429241591A5242891A3D0025E561463D
S31520002E109146154D01E680220024120379E61D0015
S31520002E200E00203DEE40B046202B04D04025EB1A64
S31520002E309940084381464E464346711E8E411E43A5
S31520002E4067E7861896429B4161445B42C9183D005C
S31520002E508CE547463743CED007224146324049E6E5
S31520002E6000273A00E6E5C046FF070000FFFF7FFF88
S31520002E7030B5144D0A034B00120B5B0DC90F00240D
S31520002E80AB4211DD104CA34210DC802464032243A4
S31520002E900E4CE41A1F2C0CDD0D48C31ADA40130021
S31520002EA05C42002900D11C00200030BD094BCC1803
S31520002EB0FAE7094DE040AC4663449A4013000343C9
S31520002EC0EEE7C046FE0300001D04000033040000A8
S31520002ED013040000FFFFFF7FEDFBFFFF10B5041E6C
S31520002EE025D000F06BF8144B1B1A5B055B0D0A28E6
S31520002EF012DD0B38844000222403240B002110000D
S31520002F0024030A0D240B120522430C4C1B052240D8
S31520002F1013435B00590810BD020021001532914071
S31520002F200A000B21081AC4402403240BE6E70023D9
S31520002F3000240022E2E7C0461E040000FFFF0F80A7
S31520002F408446101C62468C46191C634600E0C04627
S31520002F501FB500F0F1F8002801D40021C8421FBD9A
S31520002F6010B500F049F84042013010BD10B500F010
S31520002F70E3F8002801DB002010BD012010BDC0466B
S31520002F8010B500F0D9F8002801DD002010BD012081
S31520002F9010BDC04610B500F06BF8002801DC0020FB
S31520002FA010BD012010BDC04610B500F061F8002804
S31520002FB001DA002010BD012010BDC0461C210123CE
S31520002FC01B04984201D3000C10391B0A984201D3E6
S31520002FD0000A08391B09984201D30009043902A2C4
S31520002FE0105C40187047C04604030202010101012B
S31520002FF00000000000000000F0B54F464646D646C9
S315200030008446C0B58046194E18030F034D00000BA9
S315200030105C0082463F0B6D0DC90F9146640DDB0F98
S315200030200120B5420AD0B44203D0A54201D157456A
S315200030300CD01CBC90469946A246F0BD66463E433F
S31520003040F7D1AC42F5D154461443F2D10120C845FC
S31520003050EFD1994207D0002DEBD163461F433800AC
S31520003060471EB841E5E70020E3E7C046FF0700001A
S31520003070F0B54F464646D6464D00C0B50E03C90F9D
S315200030808A462C491F035C008046360B6D0D9146FF
S315200030903F0B640DDB0F8D421ED08C4216D0002DC7
S315200030A01ED130438446002C01D13A4323D06246B8
S315200030B0002A1AD09A4529D05146022001390840C3
S315200030C001381CBC90469946A246F0BD39001143F2
S315200030D0E5D002204042F4E73043FAD1AC420FD08B
S315200030E0002C0FD13A43E7D00CE00122013B934359
S315200030F018000130E5E763460020002BE1D0DBE72E
S315200031003A43E6D19A45D7D1A542D5DCA54205DB7F
S31520003110BE42D1D808D00020BE42D2D2504601238A
S31520003120013898430130CCE7C845C5D80020C845AA
S31520003130F4D3C6E7FF070000F0B54F464646D6460D
S315200031404D00C0B50E03C90F8A462E491F035C00E9
S315200031508046360B6D0D91463F0B640DDB0F8D427D
S3152000316018D08C4211D0002D18D130438446002C23
S315200031701ED13A431CD163460020002B30D0514645
S3152000318002200139084001382AE039001143EAD0EB
S31520003190022025E03043FBD1AC4226D0002C26D19C
S315200031A03A4324D15146022001390840013817E01C
S315200031B06246002A0FD09A45E1D1A54205DBBE42E0
S315200031C0DDD819D00020BE420AD25046012301384C
S315200031D09843013004E00122013B9343180001305B
S315200031E01CBC90469946A246F0BD3A43D0D19A459A
S315200031F0C5D1A542C3DCE0E7C845C0D80020C845F4
S31520003200E3D3EDE7FF070000F0B54F464646D64626
S315200032100C000903C0B5490A470F5E0039431F0356
S31520003220DB0F9C4665007B0A570F1F436D0DE40F8D
S31520003230760DA146C000B846D200AB1B64457BD0B4
S31520003240002B5FDD002E00D0A4E03E00164300D107
S3152000325012E15E1E002E00D09EE1871A4346B84238
S3152000326080410125C91A4042091A0B0200D431E1D6
S3152000327049024E0A002E00D16EE13000FFF79EFE75
S315200032800300083B1F2B00DD61E120223900D21A02
S315200032909E40D1409F400E439D4200DD51E15D1B83
S315200032A06B1C1F2B00DD7CE12021C91A3D0030005C
S315200032B08F408840DD40791E8F4131000722284308
S315200032C0D940002507433A40002A09D00F233B4026
S315200032D0042B05D03B1DBB42BF417F42C9191F00AD
S315200032E00B0200D426E26A1CC64B55056D0D9A4288
S315200032F000D106E1C44AFF080A40530752023B4365
S31520003300120B8EE0002B00D0B8E06B1C5B055B0D2A
S31520003310012B00DC30E1871A4346B842B641CB1A6E
S3152000332076429E1B330200D54CE13B003343A1D1AC
S3152000333000220024002570E0002B00DCE5E0002EB2
S3152000334000D183E0AF4EB54260D0802636043743A5
S31520003350B846382B00DC3EE1434613431F007A1E55
S3152000336097413F1887428041404209180B0200D4FA
S31520003370B0E0A44B01359D4200D1C3E0A24A7B08B0
S315200033800A4001210F401F435108D30707221F433C
S315200033903A4099E79B4EB54238D0802636043743CB
S315200033A0B846382B00DDDCE01F2B00DC30E11E00A8
S315200033B04746203EF740BC46202B04D04026F31A31
S315200033C046469E403243170063467A1E97411F4366
S315200033D0CCE0002B00D104E24346134300D159E14F
S315200033E04B07C00818438023C9081B03194208D07D
S315200033F04546ED081D4204D14346D00859070843E7
S315200034002900420FC9007F4D1143C0004B07CA084F
S315200034107C49C00803438D4268D012036D05120B08
S315200034206D0D002112031800130B0A0D12051A4305
S31520003430764B2D0513402B435B00E4075B082343A3
S3152000344019001CBC90469946A246F0BD3E00164384
S3152000345012D05E1E002E00D000E1871887428041E0
S3152000346041444042091801250B0233D5022585E740
S3152000347064463300414610001D00C7E7002D00D0EA
S31520003480DAE00C000443F3D05C1C00D19FE15D4CD4
S31520003490A64200D12FE1DB43382B00DD66E11F2B4E
S315200034A000DD83E120240500E41A0F00DD40D94029
S315200034B0A0404346A7405B1A441EA04198462F438E
S315200034C03843171ABA42924143465242991A6446E1
S315200034D03500CAE607223A40002A00D0F6E64B0716
S315200034E0CA084849FF083B438D4296D1190011432B
S315200034F000D19EE1802109030A431203120B414D9C
S315200035008FE71500002200238BE7002B00D0C7E0B1
S315200035106B1C5F057F0D012F00DCF1E0394DAB42BE
S3152000352000D1B9E085180A008542894142444942C2
S3152000353051180722CF076D082F4349083A401D002E
S31520003540C2E607223049ED1A31403A40BCE63E0039
S315200035502838864000279FE63800FFF72FFD2030C9
S315200035608EE6434613431F007A1E9741C71BB84277
S3152000357080414042091A78E60E003B000643134379
S31520003580002D61D1002E00D0F4E0002B00D11BE1EC
S3152000359064463900100039E71A4FBB427AD033000F
S315200035A0FFE630001F3DE840202B03D04021CB1AF8
S315200035B09E4037437B1E9F41072207433A40002106
S315200035C0002589E7171A4346BA42B641591A764268
S315200035D08E1B64464EE61F2B00DDADE020264746B7
S315200035E0F61AB740B9461700B246DF404E463E436C
S315200035F037005646B240561EB24117434246DA407D
S315200036008918AEE6FF070000FFFF7FFFFFFF0F8050
S3152000361020264746F61AB740B9461700B246DF407D
S315200036204E463E4337005646B240561EB2411743D9
S315200036304246DA40891A99E77F4CA6425BD080241D
S3152000364024045B42214327E7002E0CD1002B00D116
S31520003650CBE0644639001000774DD7E6764FBB4263
S3152000366018D0330075E6002B14D04B07C00818433A
S315200036708023C9081B03194207D0FC081C4204D129
S315200036807907D0080843E14621004C46420FC9007D
S315200036901143C000684DB9E61D0000220023C0E694
S315200036A0002D5BD10D00054300D1E2E65D1C00D163
S315200036B0B0E0614DAE421FD0DB43382B71DC1F2BAF
S315200036C000DD96E020250F00ED1AAF40B946070031
S315200036D0AA46DF404D463D432F005546A840D940D7
S315200036E0451EA84188440743BF189742924151423C
S315200036F0414435003AE6644635004146100085E6E9
S315200037000B000343002D00D063E6002BF5D0434683
S31520003710134300D17AE68718874280410722414425
S31520003720404209183A400B0200D4D5E6434B0135F6
S315200037301940C9E5380069E61E004746203EF74095
S31520003740BC46202B04D04026F31A46469E403243E0
S31520003750170063467A1E97411F4302E6364DAE4256
S31520003760CAD080252D045B422943A6E70843411E83
S315200037708841A6E6002B00D148E6871A4346B84280
S31520003780B641CB1A76429E1B33024BD5171A4346B7
S31520003790BA429241591A5242891A072264463A403D
S315200037A092E501430F00791E8F419DE71C000F0013
S315200037B0203CE740202B03D04024E31A99400843BD
S315200037C0411E884138437CE60022002425E6171A4C
S315200037D04346BA429241591A5242891A64463500E2
S315200037E043E541461000144D10E6802200241203C2
S315200037F080E61D000F00203DEF40BC46202B03D065
S315200038004025EB1A9940084307006346781E8741F6
S315200038101F4369E7871897429B4141445B42C91879
S315200038203500A3E53B003343CED0072231003A4092
S3152000383052E600231A00F4E5FF070000FFFF7FFF92
S31520003840F0B55746DE464E464546E0B58346070068
S315200038500E03480085B092461C00360B400DCD0F56
S31520003860002800D19DE0954B984239D08023F60060
S315200038701B041E43924A7B0F33439946944603000A
S315200038806344009300230026FF00029323031B0BAF
S3152000389098466300E40F52465B0D019400D1B3E0D5
S315200038A086498B4200D19EE04246D10080221204F6
S315200038B00A435146490F11438B46814952468C464D
S315200038C000996344CB1A0021D20000932B00634059
S315200038D09A460F2E00D905E17A4BB6009B599F4692
S315200038E05B463343994600D0B8E0022308260027DA
S315200038F000900293CAE7CB463A0002990195019BB4
S315200039009A46022927D0032900D180E2012944D0F2
S315200039106D49009B8C4663441C00002C38DD530700
S3152000392000D013E2D2085B46DB0109D55946674B26
S3152000393019408B468021C9008C46009B63441C009D
S31520003940634B9C4207DC5B4664055F075B021743BB
S315200039501B0B620D02E000230027584A00211B039F
S315200039601C0B0B0D1B05234314055A4A3800134024
S315200039701C4353466400DB0764081C43210005B042
S315200039803CBC90469946A246AB46F0BD0122524227
S3152000399001231B1B382B00DCADE10022002300276E
S315200039A0DCE75B46334399465ED0002E00D18AE1A0
S315200039B03000FFF703FB03000B3B1C2B00DD7BE1F4
S315200039C01D22D31A5A460100DA4008398E401300C8
S315200039D05F46334399468F403F4B00261B1A009380
S315200039E00023029352E7414653460B433B499B46ED
S315200039F08C46009B634400935B46002B3BD10223FD
S31520003A0000221E43022161E7434613439B4637D0DB
S31520003A104346002B00D162E14046FFF7CFFA030070
S31520003A200B3B1C2B00DD53E102004146083A914036
S31520003A3088461D21CB1A5146D9400B0041460B43DF
S31520003A409B46534693401A00009B25499C4660445A
S31520003A5003008C4663440093002137E70323B146D5
S31520003A6000900C26029311E70023009301330426CD
S31520003A70002702930AE70323C3461E43032125E7B3
S31520003A8001331E430022012120E700239A4680238A
S31520003A9000271B03094A61E7802349461B03194275
S31520003AA000D1E2E05946194200D0DEE00B431B0369
S31520003AB017001B0BA246014A50E7C046FF0700002D
S31520003AC001FCFFFF90500020FF030000FFFFFFFED8
S31520003AD0FE070000FFFF0F800DFCFFFF01F8FFFF30
S31520003AE0F3030000D94500D9CBE000D1C6E03C0065
S31520003AF048460027009B013B00935B46160E1B029F
S31520003B001E431302984633041B0C9946310C01912F
S31520003B10FEF742FE4A4642430B04210C0500194398
S31520003B208A4207D98919013D8E4203D88A4201D992
S31520003B30851E8919881A0199FEF72EFE09048C46DE
S31520003B404A46210464464243090C030021438A4223
S31520003B5004D98919013B8E4200D8F1E02D041D437A
S31520003B60AB464346891A4246280C12041D0C5B4676
S31520003B70140C22001B041B0C5A4303946B4344432E
S31520003B80029568431B19150CEB189C4203D9802417
S31520003B906402A44660441C0C15041B042D0C20183A
S31520003BA05D19814277D373D00C1AA24A7D1BAF428E
S31520003BB0BF419446009B7F426344E01B1C00864223
S31520003BC000D1DBE00199FEF7E7FD4A4642430B04AC
S31520003BD0290C070019438A4207D98919013F8E42C9
S31520003BE003D88A4201D9871E8919881A0199FEF7B6
S31520003BF0D3FD09044A46894629044D464243090C09
S31520003C00030029438A4207D98919013B8E4203D8EA
S31520003C108A4201D9831E89193F04891A3A00039FD3
S31520003C201A43380013041B0C584381460298150C7E
S31520003C306F43434345434846000C8446DB1963449F
S31520003C409F4203D9802040028446654448461F0C83
S31520003C5000041B04000C7D191818A94200D284E028
S31520003C6000D17FE001231A4357E680234A461B03EF
S31520003C7013431B031B0BAA466F4A6FE6BA4200D9B1
S31520003C8035E74B46DC0758087B081C43FF0734E71B
S31520003C900024AF4289D247444745A4415B4664424B
S31520003CA0A4196418013BA6421ED2A0426DD800D1A9
S31520003CB0B6E0241A9B4678E703005A46283B9A40EA
S31520003CC00027914688E65846FFF778F9203072E6B5
S31520003CD003005246283B9A4093460022B4E65046BB
S31520003CE0FFF76CF920309AE6A642E2D1B845DCD936
S31520003CF0341A9B4659E71F2B65DC504C0099A44685
S31520003D005C46614408008C4011008240D940501E18
S31520003D1082410C4314435A46DA401300620709D005
S31520003D200F222240042A05D02200141D94428941E4
S31520003D3049425B181A0262D50122002300270DE6AC
S31520003D408A4200D80AE7831E891907E70F23134002
S31520003D50042B00D1E6E5171D9742924153429B441E
S31520003D60FA08E0E5002800D1D7E57118531EB142C4
S31520003D7027D3A94215D358D01A0073E7002B00DCAD
S31520003D8004E6012300229B44CDE502234744474510
S31520003D9089415B429C46494289190C19E344241AFD
S31520003DA003E743465F0047459B41B8465B429E1961
S31520003DB0023A8919A94200D054E7404500D051E77C
S31520003DC0ABE51A00F6E71F215F4649420C1BE74088
S31520003DD0202B07D01A49009B8C46634418005B466B
S31520003DE083401A43501E82413A4307270023174037
S31520003DF009D00F21002311401400042995D1220057
S31520003E005F075B021B0BD20817430022A6E580231F
S31520003E1059461B030B431B0317001B0B064A9DE544
S31520003E20BD42B2D89B460024BFE68045B9D31A00CE
S31520003E30C3E7C046FF030000FF0700001E04000082
S31520003E403E040000F0B55746DE464E464546E0B5F0
S31520003E50834606000F03480087B092461D003F0B9D
S31520003E60400DCC0F002800D16FE0DE4B984238D0B1
S31520003E708023FF001B041F43730F3B430193DA4B40
S31520003E800027994600239B46F60081442B036900B0
S31520003E901B0B52469846490DED0F002900D185E0AF
S31520003EA0D04B994200D173E04346DA0080231B04AD
S31520003EB013435246CC48520F8446134352460020A1
S31520003EC06144D20089442100694000918C46012139
S31520003ED049448A460F2F00D990E0C449BF00CF59E4
S31520003EE0BF465B463B43019300D06AE10223082785
S31520003EF0002681469B46C9E732005846019B61460B
S31520003F000091022800D175E0032800D1FEE10128A6
S31520003F1000D02CE100230027002600253F032A0D90
S31520003F203F0BB34812053A4302401B051343009A40
S31520003F305B00D1075B080B433000190007B03CBC7F
S31520003F4090469946A246AB46F0BD5B463B4301935D
S31520003F5000D12FE1002F00D1A5E13800FFF72EF880
S31520003F6003000B3B1C2B00DD96E11D22D31A5A467B
S31520003F700100DA405E4608398F4013008E403B43ED
S31520003F8001939C4B00271B1A994600239B467DE7ED
S31520003F90414653460B4393498C46E144002B00D0BF
S31520003FA01AE102220220174300228CE7134300D194
S31520003FB00DE14346002B00D181E14046FEF7FEFF8E
S31520003FC002000B3A1C2A00DD72E101004346083943
S31520003FD08B4098461D239A1A5346D3401A004346CF
S31520003FE0134352468A404946081A824989468144E3
S31520003FF0002068E77B4B002700268EE7140C12046E
S31520004000120C1100370C3604350C794328008C46E7
S315200040102E0060436044834656432100300C804680
S315200040205846794340440291844506D988468021E2
S3152000403049028C46E044414602913604010C360C76
S3152000404000048B4681191E0C1B041B0C03911900BE
S3152000405079438C46280075436544A8465843050C89
S3152000406045447743A94203D9802149028C466744B7
S31520004070290C8C4639000004000C2D042D186144AF
S31520004080AB4405915946049101990F043F0C080C45
S31520004090390051434243904602008C46090C8B4618
S315200040A062437C4344445C44A04503D980214902B1
S315200040B088464244210C884661460904090C8C46F0
S315200040C039005943434370437E430F0CF6182404AA
S315200040D0BE19644442448C46B34203D980235B0212
S315200040E098464044029B61469846049B37044344C5
S315200040F09B46AB45AD416B420D0405992D0C8C4674
S315200041007F196744FD18A8465D462D19A542A4418E
S3152000411093466442A446C344DC448F42BF4198453B
S315200041209B4193459241A445A4415B427F421F4354
S31520004130360C52426442BF192243BF1862463818D1
S315200041404302D20D039913436A020A43501E824149
S315200041506146ED0D2A434E023243D90100D4B3E025
S315200041600126500832400243DE0732435B08224CC8
S315200041705444002C62DD510709D00F20104004283A
S3152000418005D0101D9042924152429B180200D9013F
S3152000419004D580241948E400034054441848844236
S315200041A000DD27E75E075B02D2081F0B6305164377
S315200041B05B0DB2E6002399460133042700269B4671
S315200041C064E60323019781460C279B465EE601227F
S315200041D001201743002276E6032303201F4343468C
S315200041E071E6C046FF07000001FCFFFFD05000200B
S315200041F0FFFF0F800DFCFFFFFF030000FFFFFFFE08
S31520004200FE0700000023802700933F030026434B30
S3152000421083E6019B3200A446584670E6AC466EE61D
S31520004220802701993F0339422DD03B422BD11F4392
S315200042303F033F0B00951600384B6EE601252D1BDC
S31520004240382D00DD66E61F2D40DC35481C00504425
S31520004250160082408440EE40501E8241344314436F
S31520004260EB40620709D00F222240042A05D0220003
S31520004270141D9442804140421B181A023ED5012348
S315200042800027002649E68027019B3F031F433F0363
S315200042903F0B0094214B40E603005A46283B9A40A8
S315200042A0002601926DE65846FEF788FE203057E636
S315200042B003005246283B9A401300002293E65046BC
S315200042C0FEF77CFE20307BE6CA4650E71F201E0004
S315200042D04042041BE640202D03D0124C5444A340F8
S315200042E01A43501E8241324307260027164009D022
S315200042F00F200023104014000428B9D122005E07A5
S315200043005B021F0BD2081643002306E680273F03D5
S315200043101F433F033F0B1600004BFEE5FF0700003F
S315200043201E0400003E04000070B50C4E0D031C0355
S3152000433049005B002D0B490D240B5B0DB14208D0C3
S31520004340064900208B4203D114432000441EA0417D
S3152000435070BD05430120002DFAD1F1E7FF070000CB
S3152000436070B500282DD0C317C5185D40C40F28008E
S31520004370FEF724FE154B1B1A5B055B0D0A2815DD7F
S315200043800B38854000222D032D0B002110002D0314
S315200043900A0D2D0B12052A430D4D1B052A401343EA
S315200043A05B00E4075B082343190070BD0200290067
S315200043B0153291400A000B21081AC5402D032D0BFA
S315200043C0E3E70024002300250022DEE71E04000088
S315200043D0FFFF0F80434AF0B54F4691464B005B0DD9
S315200043E099444646D6464A46C0B505000C000E00FE
S315200043F088460700132A25DC002A56DB3A4B134150
S315200044009A460B0052461340034316D0374A384B80
S31520004410FEF7FAFE00220023FEF7BCFD00280AD094
S31520004420002C04DD80234A465B031341984446460C
S31520004430534600279E43380031001CBC90469946BF
S31520004440A246F0BD332A08DD8023DB009945F4D14E
S3152000445002000B00FEF7D8FEEFE7264A944601221B
S3152000446063445242DA4092460242E6D01F4A204B2B
S31520004470FEF7CAFE00220023FEF78CFD0028DAD0C4
S31520004480002C0EDD4B46142B22D034234A46012421
S315200044909B1A9C406519BD4222D201239C462F00BF
S315200044A0E044534646469F43C5E7104A104BFEF765
S315200044B0ABFE00220023FEF76DFD0028BBD0002CAA
S315200044C00ADB2C4300270026002CB4D00A4EB2E784
S315200044D0133B9C46E044E4E7802600273606AAE7FD
S315200044E02F00DEE701FCFFFFFFFF0F009C75008811
S315200044F03CE4377EEDFBFFFF0000F03FF0B547467A
S31520004500CE4680B58DB004000D0000F083F83C4BFC
S3152000451006001B780F005BB29846013310D02200AC
S315200045202B0020002900FFF7FFFE8146002807D137
S315200045300022002320002900FEF722FD002806D1B4
S31520004540300039000DB00CBC90469946F0BD2D4B7D
S315200045500494059503934B460A9343460694079580
S31520004560002B1AD1E022284B12060892099320002C
S31520004570002200232900FEF7F3FC002838D002236E
S31520004580029302A800F0D8F8002817D00A9B0193BE
S31520004590002B18D1089E099FD2E700221B4B200032
S315200045A008920993290000220023FEF7D9FC00284F
S315200045B00FD0022302934346022BE2D100F09AFA4F
S315200045C022230360E2E700F095FA0A9B0193036039
S315200045D0E0E7012302934346022B0BD100F08AFA2F
S315200045E0212303600A4800F0A9F808900991CDE735
S315200045F00123029302A800F09FF80028F2D1EDE7EC
S31520004600EC4B002010510020FFFFEFC70000F0FF09
S3152000461018510020F0B5CE46474680B53A4A83B0B9
S3152000462004000D000B0091421CDC4A005208024394
S315200046305AD000295FDB0022344BFFF703FC0D0024
S315200046400B003621324A0400494293420EDD2200F5
S315200046502B0020002900FEF7D7FD03B00CBC9046A6
S315200046609946F0BD2A4A00219342F0DC294A1815C2
S31520004670944660444018C20F91461B031B0B4844C6
S315200046809846FFF76DFE4A46234B06009B1A424684
S315200046901B051A430F002000110000F055F81F4A91
S315200046A004000D001E4B30003900FFF7CBFB1D4ADE
S315200046B0009001911C4B20002900FFF7C3FB02004C
S315200046C00B0000980199FEF79FFD184A04000D0083
S315200046D0174B30003900FFF7B5FB02000B00200016
S315200046E02900FEF791FDB8E700220023002011499A
S315200046F0FFF7A6F8B1E70200FEF772F800220023C2
S31520004700FFF79EF8A9E7C046FFFF0F0000005043C1
S31520004710FFFFEF7F01FCFFFFFF030000362BF111A7
S31520004720F3FE593D0EE526157BCBDB3F00609F50FF
S315200047301344D33F000050C3002070470020014996
S315200047407047C0460000F87FF0B5D6464F4646462D
S31520004750C0B5CA4A86B00B00914200DDCCE04A00C3
S315200047605208024300D1D6E0002900DAE6E0C44B25
S315200047700022FFF767FB3625C24C0B006D42A34291
S3152000478000DDBEE01A15C04C1B031B0B9846A44641
S315200047908024BE4B640343442340BD4C62445219DB
S315200047A05C4045461B1599462543B94B2900914443
S315200047B00022FEF715F8434602331B0306000F00BE
S315200047C01B0B0022022B00DCACE08023DB05FEF76E
S315200047D01BFD02000B0030003900FFF731F8040002
S315200047E048460D00FFF7BCFD2200009001912B00EA
S315200047F02000290004940595FFF724FB0D000400F2
S31520004800A449220041442B008A4620002900029414
S315200048100395FFF717FB04000D009F4A9F4BFFF7F8
S3152000482011FB9F4A9F4BFEF7EFFC22002B00FFF760
S3152000483009FB9D4A9D4BFEF7E7FC22002B00FFF764
S3152000484001FB9B4A9B4BFEF7DFFC029A039BFFF77B
S31520004850F9FA994A02900391984B20002900FFF714
S31520004860F1FA974A974BFEF7CFFC22002B00FFF771
S31520004870E9FA954A954BFEF7C7FC22002B00FFF775
S31520004880E1FA0B00020002980399FEF7BDFC0D0029
S3152000489041468F4B04005B1A51460B43002B00DC2C
S315200048A095E000228B4B30003900FFF7CBFA32001F
S315200048B03B00FFF7C7FA0A0001001300029103929A
S315200048C0020029002000FEF79FFC049A059BFFF7B3
S315200048D0B9FA4B4604000D00002B00D08DE00200F3
S315200048E00B0002980399FDF77BFF02000B003000B6
S315200048F03900FDF775FF08E0624C0025A34200DC75
S3152000490040E702000B00FEF77FFC06B01CBC904679
S315200049109946A246F0BD0022002300206E49FEF7EC
S315200049208FFFF2E70023FEF71BFB00280ED04B4635
S31520004930002B00D084E000200021E6E70200FDF7EE
S315200049404FFF00220023FEF77BFFDEE7634A644B1E
S3152000495030003900FFF776FA02000B0000205D498F
S31520004960FDF73EFF320004000D003B003000390009
S31520004970FFF768FA0B00020029002000FFF762FA11
S315200049804B4604000D00002B30D04846FFF7E8FCCC
S3152000499000900191534A544BFFF754FA534A029020
S315200049A0039100980199524BFFF74CFA02000B0035
S315200049B020002900FDF714FF32003B00FDF710FF11
S315200049C002000B0002980399FDF70AFF9DE72200DB
S315200049D02B0030003900FDF703FF049A059BFFF7F3
S315200049E031FA4B4604000D00002B41D122002B004A
S315200049F030003900FDF7F4FE87E73A4A3A4B009833
S31520004A000199FFF71FFA394A0490059100980199F8
S31520004A10374BFFF717FA22002B00FEF7F5FB0200B3
S31520004A200B0002980399FDF7DBFE32003B00FDF7F1
S31520004A30D7FE02000B0004980599FDF7D1FE64E726
S31520004A404846FFF78DFC274A274B04000D00FFF749
S31520004A50F9F9264A06000F00254B20002900FFF70A
S31520004A60F1F902000B0030003900FEF7CDFB4CE7D0
S31520004A701C4A1D4B009801998EE7C046FFFF0F0088
S31520004A8000005043FFFFEF7F01FCFFFF645F09003A
S31520004A900000F03F86EBF9FF44523EDF12F1C23FA1
S31520004AA0DE03CB966446C73F599322942449D23FCE
S31520004AB0935555555555E53F9FC678D0099AC33F1E
S31520004AC0AF788E1DC571CC3F04FA97999999D93F35
S31520004AD051B806000000E03F000050C3555555551B
S31520004AE05555D53F0000E0FE422EE63F763C79350F
S31520004AF0EF39EA3D014B18687047C046F04B00205D
S31520004B00000000000000000000000000000000007F
S31520004B10000000000000000000000000000000006F
S31520004B20000000000000000000000000000000005F
S31520004B30000000000000000000000000000000004F
S31520004B40000000000000000000000000000000003F
S31520004B50000000000000000000000000000000002F
S31520004B60000000000000000000000000000000001F
S31520004B70000000000000000000000000000000000F
S31520004B8000000000000000000000000000000000FF
S31520004B9000000000000000000000000000000000EF
S31520004BA000000000000000000000000000000000DF
S31520004BB000000000000000000000000000000000CF
S31520004BC000000000000000000000000000000000BF
S31520004BD000000000000000000000000000000000AF
S31520004BE0010203040102030406070809010000006C
S31520004BF0F84B00200000000000000000E44E0020DA
S31520004C004C4F0020B44F00200000000000000000A0
S31520004C10000000000000000000000000000000006E
S31520004C20000000000000000000000000000000005E
S31520004C30000000000000000000000000000000004E
S31520004C40000000000000000000000000000000003E
S31520004C50000000000000000000000000000000002E
S31520004C60000000000000000000000000000000001E
S31520004C70000000000000000000000000000000000E
S31520004C8000000000000000000000000000000000FE
S31520004C9000000000000000000000000000000000EE
S31520004CA001000000000000000E33CDAB34126DE68B
S31520004CB0ECDE05000B0000000000000000000000F4
S31520004CC000000000000000000000000000000000BE
S31520004CD000000000000000000000000000000000AE
S31520004CE0000000000000000000000000000000009E
S31520004CF0000000000000000000000000000000008E
S315200050200000000000000000010200000000000057
S31520005030080000000400000000000000010000003D
S315200050400000000001020000000000002000000017
S315200050501000000000000000020000000000000018
S315200050600102000000000000020000000100000014
S315200050700000000003000000000000000102000004
S31520005080000000008000000040000000000000003A
S31520005090E43A0020563900209A390020FE380020B4
S315200050A09A3900208A3A00209A390020FE380020BA
S315200050B056390020563900208A3A0020FE38002032
S315200050C0F6380020F6380020F6380020983A0020DE
S315200050D0FC3F0020FE3E0020FE3E00201C42002019
S315200050E0F83E0020F83E0020044200201C4200200A
S315200050F0F83E002004420020F83E00201C420020FA
S31520005100124200201242002012420020204200209B
S315200051106C6F67313000000000000000F84B002063
S70520000000DA
