S01300002E2F44656275672F446F6F722E733139DA
S315200000000248854602F0ACFCFEE7C04600C001204F
S3152000001080B582B000AF02003960FB1D1A70FB1D4F
S315200000201B787F2B0DD93B68DAB20F49FB1D1B7855
S3152000003018000F230340043B1201D2B2CB181A76C4
S315200000400DE03B68DBB20949FA1D127852B21B015A
S31520000050D8B2C0239B008A18D318021C1A70C04637
S31520000060BD4602B080BDC04600ED00E000E100E0E4
S3152000007080B582B000AFFB1D00221A700FE0FB1D79
S315200000801B780B4A1B01D3180C331B78002B01D18C
S31520000090012309E0FB1D1A78FB1D01321A70FB1D96
S315200000A01B780D2BEBD900231800BD4602B080BD6E
S315200000B0F03C002080B588B000AF0200FB1D1A700E
S315200000C0FB1D1B78204A1B01D3180C3301221A7002
S315200000D0FB1D1B781C4A1B01D31804331B68FB61CC
S315200000E0FB1D1B78184A1B01D31808331B68BB61FC
S315200000F008217B18FA1D12789A727B180022DA7270
S315200001007B1801221A731C203B185A887B181A80E8
S315200001103B181A887B185A8018203B185A887B1857
S315200001209A803B181A887B18DA807B1800221A815D
S315200001307B1801225A737B18180000F037FCC04642
S31520000140BD4608B080BDC046F03C002090B587B0C3
S3152000015000AFF860B9607A601723FB1800221A7086
S3152000016076E01723FB181B783E4A1B01D3180C3365
S315200001701B78002B66D13C4B1B78012B3DD1BB68ED
S315200001801A7804210A431A707B681A7804210A43D4
S315200001901A70BB681B68DA0810203B181A60334BAC
S315200001A01B689B059B0D9BB29B059B0D1B023A6909
S315200001B02F490A4013433B6104003B181B68DB00B0
S315200001C0DA08BB68D2001968072001400A431A6082
S315200001D07B681B68DA0820003B181A603B69254AB1
S315200001E013433B613B181B68DB00DA087B68D200AF
S315200001F01968072001400A431A6017217B181B78CB
S31520000200184A1B01D3180433BA6812681A607B187F
S315200002101B78144A1B01D31808337A6812681A60AF
S3152000022008007B181A780F4B1201F968D15001008B
S315200002300C007B181B781800FFF73CFF21007B1869
S315200002401B780BE017217B181A787B1801321A705D
S315200002501723FB181B780D2B83D90E231800BD46B8
S3152000026007B090BDF03C0020D03D0020EC3C0020A3
S31520000270FF00FCFF00FF030080B586B000AF020040
S31520000280FB1D1A70FB1D1B780D2B16D8FB1D1B782A
S315200002900C4A1B01D3180C3300221A7008217B1834
S315200002A0FA1D12789A727B1800221A817B18002276
S315200002B05A737B18180000F079FBC046BD4606B07D
S315200002C080BDC046F03C002080B582B000AFFB1D4B
S315200002D000221A7009E0FB1D1B781800FFF7CCFFDF
S315200002E0FB1D1A78FB1D01321A70FB1D1B780D2B86
S315200002F0F1D9C046BD4602B080BD80B584B000AFFE
S315200003007860244B1B78012B38D17B681B7A002B15
S315200003101AD17B6804221A727B681A680C203B1853
S3152000032092041A601C4B1B689B059B0D9BB29B0578
S315200003309B0D1B02FA6819490A401343FB603B18C0
S315200003401A687B685A6019E07B681B7A042B15D1E2
S315200003500C203B187A6852681A600F4B1B689B0565
S315200003609B0D9BB29B059B0D1B02FA680B490A400D
S315200003701343FB603B181A687B685A607B68084AFF
S315200003801900100000F0D0FC03001800BD4604B090
S3152000039080BDC046D03D0020EC3C0020FF00FCFF85
S315200003A00064004080B586B000AF174B02211800CC
S315200003B001F050F9031E22D0134B0021180000F043
S315200003C02BFF031E1BD03B1D0F481A00002100F0F7
S315200003D032FE3B1DDB7C0D2B11D83B1DDB7C0B4AF3
S315200003E01B01D3180C331B78012B08D13B1DDB7C5A
S315200003F01A00064B1201D3583A1D10009847C046E2
S31520000400BD4606B080BDC04600640040F03C0020DA
S31520000410B0B584B000AF0200BB1D1A80444B012248
S315200004201A70BB1D1A88434B1A600F23FB18002233
S315200004301A7073E00F23FB181B783F4A1B01D31851
S315200004400C331B78012B63D10F203B181B783A4ABB
S315200004501B01D3181A7904210A431A713B181B78F9
S31520000460354A08211B01D3185B181A7804210A4340
S315200004701A703B181B78304A1B01D3185B68DA08C0
S3152000048008257B191A602B4B1B689B059B0D9BB27D
S315200004909B059B0D1B02BA6828490A401343BB6083
S315200004A07B191A6804003B181B78D200D20822490F
S315200004B01B01CB18D2005968072001400A435A6015
S315200004C020003B181B781C4A08211B01D3185B18F7
S315200004D01B68DA087B191A60BB68194A1343BB608C
S315200004E07B191A6804003B181B78D200D2081249DF
S315200004F008201B01CB181B18D200196807200140C1
S315200005000A431A6020003B181B781800FFF7D2FD1B
S315200005100F217B181A787B1801321A700F23FB18CB
S315200005201B780D2B86D9C046BD4604B0B0BDC0464B
S31520000530D03D0020EC3C0020F03C0020FF00FCFFDA
S3152000054000FF030080B582B000AF214B00221A7055
S31520000550FB1D00221A7032E0FB1D1B781D4A1B0171
S31520000560D3180C331B78012B24D1FB1D1B78194A79
S3152000057008211B01D3185B181B68DA083B001A6098
S315200005803B68154A13403B603B001A68FB1D1B78ED
S31520000590D200D2080F4908201B01CB181B18D20005
S315200005A01968072001400A431A60FB1D1B781800B2
S315200005B0FFF780FDFB1D1A78FB1D01321A70FB1D0B
S315200005C01B780D2BC8D9C046BD4602B080BDC0469B
S315200005D0D03D0020F03C0020FF00FCFFF0B589B0A4
S315200005E000AF80239B040121180001F043FE8023E5
S315200005F0DB010121180001F05DFE0121022001F03E
S31520000600D9FD614B09220921180003F084FA5E4BBB
S3152000061009220821180003F07EFA5B4B09220921E2
S31520000620180003F078FA584B09220821180003F025
S3152000063072FA3B1D802292001A603B1D02221A711B
S315200006403B1D00229A713B1D0022DA713B1D0222BE
S315200006505A713B1D4C4A1900100003F0DFF83B1D70
S31520000660802252001A603B1D02221A713B1D002275
S315200006709A713B1D0122DA713B1D02225A713B1DE4
S31520000680414A1900100003F0C9F83B1D40221A60A8
S315200006903B1D02221A713B1D00229A713B1D00222E
S315200006A0DA713B1D02225A713B1D374A1900100090
S315200006B003F0B4F83B1D20221A603B1D02221A715A
S315200006C03B1D00229A713B1D0122DA713B1D02223D
S315200006D05A713B1D2C4A1900100003F09FF80C217B
S315200006E07B1814221A707B1802225A707B18022259
S315200006F09A707B180122DA707B18180002F006FF28
S31520000700224B180000F048F810257B1900229A7118
S315200007107B190022DA717B1900221A727B190022BA
S315200007205A727B1900229A727B190022DA727B197F
S3152000073000229A707B1902221A717B1903225A71A0
S315200007407B1907221A80FFF7BFFD1F26BC197B19CC
S315200007500E4A1900100000F047F8030023700C4BD6
S315200007600C4A1A6002211420FFF752FC074B012283
S315200007700221180000F0A1FEFFF7E4FEBB191B784A
S315200007801800BD4609B0F0BD0004024000640040D8
S3152000079090C00120A503002080B582B000AF78600C
S315200007A07B68104A93420CD180239B0401211800B8
S315200007B001F000FE80239B040021180001F0FAFDC1
S315200007C00BE08023DB040121180001F0F3FD8023D8
S315200007D0DB040021180001F0EDFDC046BD4602B045
S315200007E080BDC0460064004080B584B000AF78600C
S315200007F039600F23FB1800221A700023BB607B6828
S315200008001B68022293431A007B681A607B681B6868
S3152000081001221A437B681A6002E0BB680133BB6081
S315200008207B685B6801221340012B03D0BB685E4ABC
S315200008309342F2D17B685B6801221340012B04D0DE
S315200008400F23FB1800221A70A6E03B689B79012B28
S3152000085006D17B681B6880221A437B681A6006E0F3
S315200008607B681B68802293431A007B681A603B686A
S31520000870DB79012B06D17B681B6840221A437B68F3
S315200008801A6006E07B681B68402293431A007B6847
S315200008901A603B681B7A012B06D17B681B682022D5
S315200008A01A437B681A6006E07B681B682022934304
S315200008B01A007B681A603B685B7A012B06D17B683D
S315200008C01B6810221A437B681A6006E07B681B6847
S315200008D0102293431A007B681A603B689B7A012B8F
S315200008E006D17B681B6808221A437B681A6006E0DB
S315200008F07B681B68082293431A007B681A603B6852
S31520000900DB7A012B06D17B681B6804221A437B689D
S315200009101A6006E07B681B68042293431A007B68F2
S315200009201A603B689B789A073B68DB781B061A435C
S315200009303B681B791B041A433B685B791B051A43EA
S315200009403B681B88013B1A437B68DA617B681B681E
S31520000950012293431A007B681A600023BB6002E0E1
S31520000960BB680133BB607B685B6801221340012BA7
S3152000097003D1BB680C4A9342F2D17B685B680122A3
S315200009801340012B04D10F23FB1800221A7003E019
S315200009900F23FB1801221A700F23FB181B7818004F
S315200009A0BD4604B080BDC046FFFF000090B585B0AF
S315200009B000AF78600023FB607B689B7A1A000123D6
S315200009C09340FB60644A80239B00D35862490122EE
S315200009D01A4380239B00CA505F4A87239B00D35823
S315200009E0FA68D2435C491A4087239B00CA507B6829
S315200009F01B7B002B2CD1584A83239B00D358FA68A3
S31520000A00D24355491A4083239B00CA507B68DB8812
S31520000A101B047A68528814004F497A68927A10002B
S31520000A2023431A0003004833DB005A507B689B8817
S31520000A301B047A681288140047497A68927A100053
S31520000A4023431A0003004833DB00CB1804331A6013
S31520000A507B681B7B012B2BD13F4A83239B00D258DB
S31520000A603D49FB681A4383239B00CA507B681B8839
S31520000A701B047A685288140037497A68927A1000E3
S31520000A8023431A0003004833DB005A507B689B88B7
S31520000A901B047A68D28814002F497A68927A10004B
S31520000AA023431A0003004833DB00CB1804331A60B3
S31520000AB07B68DB7A002B0BD1274A81239B00D358F6
S31520000AC0FA68D24324491A4081239B00CA5009E080
S31520000AD0214A81239B00D2581F49FB681A43812350
S31520000AE09B00CA507B681B89002B0AD11A4A852392
S31520000AF09B00D358FA68D24317491A4085239B0096
S31520000B00CA507B681B89012B09D1134A85239B0078
S31520000B10D2581149FB681A4385239B00CA507B682B
S31520000B205B7B012B09D10C4A87239B00D2580A49AB
S31520000B30FB681A4387239B00CA50074A80239B00E1
S31520000B40D3580549012293431A0080239B00CA509B
S31520000B50C046BD4605B090BD0064004080B582B059
S31520000B6000AF78607B6800229A717B680022DA7178
S31520000B707B6800221A727B6800225A727B680022E8
S31520000B809A727B680022DA727B6800229A707B68F0
S31520000B900022DA707B6803221A717B6802225A715E
S31520000BA07B6801221A80C046BD4602B080BD80B552
S31520000BB082B000AF0200FB1D1A70174A80239B00EB
S31520000BC0D358154901221A4380239B00CA50124A42
S31520000BD080239B00D3581049104A1A4080239B003B
S31520000BE0CA500D4A80239B00D258FB1D1B781B023E
S31520000BF009491A4380239B00CA50074A80239B0039
S31520000C00D3580549012293431A0080239B00CA50DA
S31520000C10C046BD4602B080BD00640040F1C0FFFF63
S31520000C2080B582B000AF78600A00FB1C1A70FB1CEE
S31520000C301B78002B07D07B681B68802252021A4340
S31520000C407B681A6005E07B681B68044A1A407B684B
S31520000C501A60C046BD4602B080BDC046FFFFFEFFFB
S31520000C6080B582B000AF78600A00FB1C1A70FB1CAE
S31520000C701B78002B2AD07B681B6880221A437B684E
S31520000C801A607A68C2235B00D358802252001A4326
S31520000C9011007A68C2235B00D1507A68CA235B00B0
S31520000CA0D358802252001A4311007A68CA235B0067
S31520000CB0D1507A68D2235B00D358802252001A433F
S31520000CC011007A68D2235B00D15027E07B681B682D
S31520000CD0802293431A007B681A607A68C2235B00DD
S31520000CE0D358104A134019007A68C2235B00D150AA
S31520000CF07A68CA235B00D3580A4A134019007A68D7
S31520000D00CA235B00D1507A68D2235B00D358054AA8
S31520000D10134019007A68D2235B00D150C046BD46E5
S31520000D2002B080BDFFFEFFFF90B585B000AF7860B2
S31520000D3039600F23FB1800221A707B689A6880237B
S31520000D40DB041A408023DB049A4204D10F23FB18CC
S31520000D5000221A701FE07B689A6880231B051A40C0
S31520000D6080231B059A4204D10F23FB1801221A70F7
S31520000D7011E07B689A6880235B051A4080235B0517
S31520000D809A4204D10F23FB1802221A7003E00F2384
S31520000D90FB1804221A700F23FB181B78042B00D192
S31520000DA0ACE00F217B181A787B6818321201D358D1
S31520000DB07A181278012119407B6818321201D15015
S31520000DC03B681B7A002B14D10F203B181A787B68BE
S31520000DD018321201D1583B681B685B053A68527A73
S31520000DE013433A18127819437B6818321201D150EE
S31520000DF016E00F203B181A787B6818321201D1585A
S31520000E003B685B68DB003A68127A13433A68527A89
S31520000E1013433A18127819437B6818321201D150BD
S31520000E203B689B7A0F221340DAB23B689A720F24F2
S31520000E303B191B787A6818331B01D31804331A68B8
S31520000E403B191B780F218A43796818331B01CB186D
S31520000E5004331A603B191B787A6818331B01D318A0
S31520000E6004331A683B689B7A19003B191B780A439E
S31520000E70796818331B01CB1804331A603B689B7BB7
S31520000E801A063B685B7B1B041A433B681B7B1B02D1
S31520000E9013433A68D27A10003A19117803431A009C
S31520000EA07868C4235B0009014118CB181A603B6897
S31520000EB09B7C1A063B685B7C1B041A433B681B7CA5
S31520000EC01B0213433A68D27B10003A191178034368
S31520000ED01A007868C6235B0009014118CB181A60EE
S31520000EE03B191A787B6818321201D3583A191278AE
S31520000EF0012119437B6818321201D1500F23FB18A8
S31520000F001B781800BD4605B090BD80B584B000AFF3
S31520000F1078600A00FB1C1A700023FB60FB1C1B7800
S31520000F20012B09D0022B0DD0002B11D17B689B6899
S31520000F30254A1340FB600EE07B689B68234A1340DA
S31520000F40FB6008E07B689B68214A1340FB6002E057
S31520000F500023FB60C046FB681E4A93421BD01D4AF5
S31520000F60934208D81C4A934212D0174A934218D06B
S31520000F70002B0AD01EE0194A93420FD0144A9342FE
S31520000F8015D0124A93420FD014E00223FB6014E0DE
S31520000F900023FB6011E00023FB600EE00023FB60D2
S31520000FA00BE00123FB6008E00123FB6005E0012341
S31520000FB0FB6002E00023FB60C046FB68DBB2180042
S31520000FC0BD4604B080BDC0460300000400030008EF
S31520000FD000000310000100080100000400000110B9
S31520000FE080B582B000AF78600A00FB1C1A70FB1C2B
S31520000FF01B78012B0BD0022B11D0002B00D016E032
S315200010007B689B6880221A437B689A600FE07B6826
S315200010109B68802212021A437B689A6007E07B68ED
S315200010209B68802212041A437B689A60C046C04699
S31520001030BD4602B080BD80B584B000AFF8607A604E
S315200010400B203B180A1C1A703B181A78FB681B32B7
S315200010501201D358DBB204221340DAB27B681A722B
S315200010607B681B7A002B0CD10B23FB181A78FB68A4
S315200010701B321201D3585B0D5B055A0D7B681A6033
S315200010800BE00B23FB181A78FB681B321201D3588E
S31520001090DB08DB00DA087B685A600B217B181A789C
S315200010A0FB681B321201D358DBB202221340DAB29C
S315200010B07B685A727B181B78FA681B331B01D3187E
S315200010C004331B68DBB20F221340DAB27B689A72B4
S315200010D008003B181B78FA681B331B01D31804330E
S315200010E01B681B0ADAB27B68DA743B181A78F9682F
S315200010F0DC235B0012018A18D3181B68DAB27B68DE
S31520001100DA723B181A78F968DC235B0012018A1818
S31520001110D3181B681B0ADAB27B681A733B181A7835
S31520001120F968DC235B0012018A18D3181B681B0C94
S31520001130DAB27B685A733B181A78F968DC235B00AD
S3152000114012018A18D3181B681B0EDAB27B689A73B1
S315200011503B181A78F968DE235B0012018A18D31827
S315200011601B68DAB27B68DA733B181A78F968DE23D3
S315200011705B0012018A18D3181B681B0ADAB27B6837
S315200011801A743B181A78F968DE235B0012018A1854
S31520001190D3181B681B0CDAB27B685A743B181A7872
S315200011A0F968DE235B0012018A18D3181B681B0E10
S315200011B0DAB27B689A743B181B78002B06D1FB6841
S315200011C0DB6820221A43FB68DA6005E0FB681B69AE
S315200011D020221A43FB681A61C046BD4604B080BD72
S315200011E080B582B000AF78600A00FB1C1A70FB1C29
S315200011F01B78002B06D17B68DB6820221A437B688C
S31520001200DA6005E07B681B6920221A437B681A6135
S31520001210C046BD4602B080BD80B584B000AF7860C0
S315200012200A00FB1C1A700F23FB1800221A70FB1CE5
S315200012301B78002B08D17B68DB68DAB20F23FB18FA
S3152000124003210A401A7010E0FB1C1B78012B08D1E1
S315200012507B681B69DAB20F23FB1803210A401A7038
S3152000126003E00F23FB1800221A700F23FB181B78AC
S315200012701800BD4604B080BD80B584B000AF78604C
S315200012800A00FB1C1A700F23FB1800221A70424B0F
S31520001290BB60FB1C1B78002B24D17B681B680322B8
S315200012A0934301221A437B681A6002E0BB68013B24
S315200012B0BB607B685B6803221340012B02D0BB68AE
S315200012C0002BF3D17B685B6803221340012B04D0EB
S315200012D00F23FB1800221A7057E00F23FB18012258
S315200012E01A7052E0FB1C1B78012B21D17B681B68EE
S315200012F0032293431A007B681A6002E0BB68013B15
S31520001300BB607B685B680322134002D0BB68002B5E
S31520001310F4D17B685B680322134004D00F23FB18AB
S3152000132000221A7031E00F23FB1801221A702CE0DC
S31520001330FB1C1B78022B24D17B681B68032293435A
S3152000134002221A437B681A6002E0BB68013BBB603D
S315200013507B685B6803221340022B02D0BB68002BFC
S31520001360F3D17B685B6803221340022B04D00F2342
S31520001370FB1800221A7008E00F23FB1801221A70AE
S3152000138003E00F23FB1800221A700F23FB181B788B
S315200013901800BD4604B080BDFFFF000080B584B0B4
S315200013A000AF78600F23FB1800221A707B681B6839
S315200013B00322934302221A437B681A607B685B6888
S315200013C003221340022B03D10F23FB1801221A708C
S315200013D00F23FB181B781800BD4604B080BD80B5CE
S315200013E084B000AF7860154BFB600B23FB180022FE
S315200013F01A707B681B68022293431A007B681A6066
S3152000140002E0FB68013BFB607B685B6802221340BD
S31520001410022B02D1FB68002BF3D17B685B6802228A
S315200014201340022B03D00B23FB1801221A700B2327
S31520001430FB181B781800BD4604B080BDFFFF0000D6
S3152000144080B584B000AF78600F217B1800221A7017
S315200014507B689B69DAB208007B1870210A401A70F3
S3152000146001007B181B781800BD4604B080BD80B5EE
S3152000147084B000AF78600F217B1800221A707B6839
S315200014809B691A0E7B181A707B181B781800BD46AC
S3152000149004B080BD80B584B000AF78600F217B1882
S315200014A000221A707B689B691A0C7B181A707B18AD
S315200014B01B781800BD4604B080BD80B584B000AF4F
S315200014C0F860B960FB1D1A70FB1D1B78002B06D037
S315200014D0FB685A69BB681A43FB685A6106E0FB68D9
S315200014E05B69BA68D2431A40FB685A61C046BD465A
S315200014F004B080BD80B584B000AF786039600F231A
S31520001500FB1800221A703A68F0231B04134010D0EF
S315200015107B689B693A6813401B031B0B04D00F237F
S31520001520FB1801221A7056E00F23FB1800221A70AE
S3152000153051E03A6880235B04134010D07B685B68D7
S315200015403A6813401B031B0B04D00F23FB18012200
S315200015501A7040E00F23FB1800221A703BE03A680D
S3152000156080231B05134010D07B689B683A68134084
S315200015701B031B0B04D00F23FB1801221A702AE031
S315200015800F23FB1800221A7025E03A6880239B045B
S31520001590134010D07B68DB683A6813401B031B0B93
S315200015A004D00F23FB1801221A7014E00F23FB1816
S315200015B000221A700FE07B681B693A6813401B03F0
S315200015C01B0B04D00F23FB1801221A7003E00F23F4
S315200015D0FB1800221A700F23FB181B781800BD4633
S315200015E004B080BD80B584B000AF78603960002338
S315200015F0FB603B68164A934203D17B6800229A61BE
S3152000160021E03B681B031B0BFB603A6880239B048D
S31520001610134003D07B68FA68DA6014E03A688023C6
S31520001620DB04134003D07B68FA681A610BE03A6842
S3152000163080231B05134003D07B68FA689A6002E07A
S315200016407B68FA685A60C046BD4604B080BDC04675
S315200016507000F03090B585B000AF786039600F2308
S31520001660FB1800221A707B685B693A68134000D128
S31520001670DBE03B68402B00D179E00ED8042B4AD022
S3152000168004D8012B30D0022B3AD0C8E0102B58D0EA
S31520001690202B61D0082B49D0C1E080221201934231
S315200016A000D1A6E08022120193420FD88022920018
S315200016B0934200D187E08022D200934200D18DE070
S315200016C080225200934200D172E0A8E0802252028A
S315200016D0934257D08022920293425ED080221202F9
S315200016E0934200D190E09AE07B689B680F22BC1859
S315200016F0534A1100180000F01BF90300237098E0EC
S315200017007B68DB680F22BC180321180000F010F953
S31520001710030023708DE07B68DB680F22BC1808214C
S31520001720180000F005F90300237082E07B68DB686F
S315200017300F22BC181021180000F0FAF803002370BD
S3152000174077E07B681B690F22BC180321180000F084
S31520001750EFF8030023706CE07B681B690F22BC182E
S315200017600821180000F0E4F80300237061E07B688C
S315200017701B690F22BC181021180000F0D9F80300AD
S31520001780237056E07B685B680F22BC18082118007E
S3152000179000F0CEF8030023704BE07B685B680F22D5
S315200017A0BC181021180000F0C3F80300237040E095
S315200017B07B689B690F22BC180121180000F0B8F83D
S315200017C00300237035E07B689B690F22BC18022139
S315200017D0180000F0ADF8030023702AE07B689B69AF
S315200017E00F22BC180421180000F0A2F80300237071
S315200017F01FE07B689B690F22BC187021180000F03F
S3152000180097F80300237014E07B685B680F22BC18EE
S315200018100421180000F08CF80300237009E00F2340
S31520001820FB1800221A70C04603E00F23FB18002283
S315200018301A700F23FB181B781800BD4605B090BD03
S315200018400101010080B582B000AF786039603B6845
S315200018508022520093424AD08022520093420CD8D2
S31520001860082B30D004D8012B25D0042B27D058E0C4
S31520001870202B2CD0402B2ED053E0802212019342D5
S3152000188041D080221201934208D8802292009342AE
S3152000189031D08022D200934231D042E080225202BF
S315200018A093421CD08022920293421CD080221202A4
S315200018B093422FD035E07B681C4A9A6031E07B68E2
S315200018C00822DA602DE07B681022DA6029E07B6846
S315200018D008221A6125E07B6810221A6121E07B68C4
S315200018E008225A601DE07B6810225A6019E07B6846
S315200018F004225A6015E07B6804225A6011E07B6856
S3152000190004225A600DE07B6800229A617B680422DB
S315200019105A6006E07B6800229A617B6804225A603E
S31520001920C046C046BD4602B080BDC046010101008A
S3152000193080B584B000AF786039600F23FB18002291
S315200019401A707B683A68134004D00F23FB180122D3
S315200019501A7003E00F23FB1800221A700F23FB18BE
S315200019601B781800BD4604B080BDC04680B582B045
S3152000197000AF02003960FB1D1A70FB1D1B787F2B00
S315200019800DD93B68DAB20F49FB1D1B7818000F23CF
S315200019900340043B1201D2B2CB181A760DE03B6805
S315200019A0DBB20949FA1D127852B21B01D8B2C02304
S315200019B09B008A18D318021C1A70C046BD4602B076
S315200019C080BDC04600ED00E000E100E080B582B0B9
S315200019D000AF78607B68013B0C4A934201D9012312
S315200019E010E00B4B7A68013A5A6001235B420F21C3
S315200019F01800FFF7BBFF064B00229A60044B072214
S31520001A001A6000231800BD4602B080BDFFFFFF000C
S31520001A1010E000E080B500AF144B1A68134B01218B
S31520001A200A431A60114B00229A60104B1A680F4B1A
S31520001A300F490A401A600D4B0E4A5A600B4A8423FE
S31520001A400D49D150094A88230C49D150074B1A68B1
S31520001A50064B0B490A401A60044B0022DA60034AFF
S31520001A608C230021D150C046BD4680BD003802409F
S31520001A70FFFFF6EA1030002400300020003000245A
S31520001A80FFFFFBFF80B582B000AF0200FB1D1A707E
S31520001A90054B00221A70044AFB1D1B781370C046A2
S31520001AA0BD4602B080BDC0460238024090B583B024
S31520001AB000AF00233B60FB1D00221A70BB1D0022D5
S31520001AC01A70BC1D312000F09BFD030023703B687B
S31520001AD001333B603A68A023DB019A4203D0BB1D49
S31520001AE01B78002BEDD0312000F08AFD031E03D099
S31520001AF0FB1D01221A7002E0FB1D00221A70FB1D3D
S31520001B001B781800BD4603B090BD80B584B000AFE9
S31520001B100200FB1D1A700023FB600A4B1B68FB604A
S31520001B20FB68F8229343FB60FB1D1B78DB00FA68F9
S31520001B301343FB60034BFA681A60C046BD4604B0E7
S31520001B4080BDC0460038024080B582B000AF02009A
S31520001B50FB1D1A70034BFA1D12781A60C046BD464B
S31520001B6002B080BD0000474280B582B000AF0200BF
S31520001B70FB1D1A700C4B00221A700B4B00221A7098
S31520001B80FB1D1B78012B02D0042B04D007E0064B4B
S31520001B9001221A7003E0044B05221A70C046C04683
S31520001BA0BD4602B080BDC0467038024080B582B0C6
S31520001BB000AF0200FB1D1A70034BFA1D12781A6043
S31520001BC0C046BD4602B080BD800E474280B584B077
S31520001BD000AFF860B9607A603B607B689A01BB68A9
S31520001BE01A433B685B08013B1B041A43FB681A43F4
S31520001BF01100BB691A06034B0A435A60C046BD460C
S31520001C0004B080BD0038024080B582B000AF02002B
S31520001C10FB1D1A70034BFA1D12781A60C046BD468A
S31520001C2002B080BD6000474280B582B000AF7860C8
S31520001C3039607B689A013B681B0704491343842259
S31520001C408B50C046BD4602B080BDC046003802401B
S31520001C5080B582B000AF0200FB1D1A70034BFA1D3F
S31520001C6012781A60C046BD4602B080BD6800474261
S31520001C7080B584B000AFF860B9607A60FB689A01DD
S31520001C80BB681B061A437B681B070449134388223B
S31520001C908B50C046BD4604B080BDC04600380240C9
S31520001CA080B582B000AF0200FB1D1A70034BFA1DEF
S31520001CB012781A60C046BD4602B080BD7000474209
S31520001CC080B582B000AF0200FB1D1A70034BFA1DCF
S31520001CD012781A60C046BD4602B080BD4C0047420D
S31520001CE080B584B000AF786039600023FB600A4B72
S31520001CF09B68FB60FB68094A1340FB607A683B6877
S31520001D001343FA681343FB60034BFA689A60C04694
S31520001D10BD4604B080BDC04600380240FFFF9FF894
S31520001D2080B584B000AF786039600023FB600A4B31
S31520001D309B68FB60FB685B015B09FB607A683B681C
S31520001D401343FA681343FB60034BFA689A60C04654
S31520001D50BD4604B080BDC0460038024080B584B080
S31520001D6000AF78600023FB60084B9B68FB60FB6834
S31520001D7003229343FB60FA687B681343FB60034BA3
S31520001D80FA689A60C046BD4604B080BD003802405D
S31520001D9080B500AF044B9B68DBB20C221340DBB24C
S31520001DA01800BD4680BDC0460038024080B584B0CC
S31520001DB000AF78600023FB60084B9B68FB60FB68E4
S31520001DC0F0229343FB60FA687B681343FB60034B66
S31520001DD0FA689A60C046BD4604B080BD003802400D
S31520001DE080B584B000AF78600023FB60084B9B6809
S31520001DF0FB60FB68074A1340FB60FA687B68134365
S31520001E00FB60034BFA689A60C046BD4604B080BDAD
S31520001E1000380240FFE3FFFF80B584B000AF786052
S31520001E200023FB60094B9B68FB60FB68084A134054
S31520001E30FB607B68DB00FA681343FB60034BFA68A0
S31520001E409A60C046BD4604B080BDC04600380240F8
S31520001E50FF1FFFFF80B588B000AF78600023BB610D
S31520001E6000237B610023FB6102233B610023FB608F
S31520001E700223BB60494B9B680C221340BB61BB69A4
S31520001E80042B07D0082B09D0002B41D17B68444A6C
S31520001E901A6041E07B68434A1A603DE03F4B5B682D
S31520001EA09B0D01221340FB603C4B5B683F22134095
S31520001EB0BB60FB68002B0DD0B9683A4801F07EFE66
S31520001EC003001A00354B5B689B09DB05DB0D53438A
S31520001ED0FB610CE0B968324801F070FE03001A007D
S31520001EE02E4B5B689B09DB05DB0D5343FB612B4BBC
S31520001EF05B681B0C0322134001335B003B6139698D
S31520001F00F86901F05BFE03001A007B681A6003E0A3
S31520001F107B68234A1A60C046204B9B68F0221340F8
S31520001F20BB61BB691B09BB611F4ABB69D3181B7800
S31520001F30DBB27B617B681A687B69DA407B685A6012
S31520001F40164B9A68E0235B011340BB61BB699B0A71
S31520001F50BB61154ABB69D3181B78DBB27B617B68F2
S31520001F605A687B69DA407B689A600C4B9A68E02352
S31520001F701B021340BB61BB695B0BBB610A4ABB6991
S31520001F80D3181B78DBB27B617B685A687B69DA40A1
S31520001F907B68DA60C046BD4608B080BD0038024086
S31520001FA00024F40040787D01D43D002080B584B023
S31520001FB000AF78600023FB607A68C0239B001A403C
S31520001FC0C0239B009A420FD10D4B9B68FB60FB6898
S31520001FD00C4A1340FB607B680B4A1340FA68134394
S31520001FE0FB60074BFA689A60054B196F7B681B05E7
S31520001FF01A0D034B0A431A67C046BD4604B080BD7E
S3152000200000380240FFFFE0FFFFFCFF0F80B582B0E3
S3152000201000AF0200FB1D1A70034BFA1D12781A60DE
S31520002020C046BD4602B080BD3C0E474280B582B058
S3152000203000AF0200FB1D1A70034BFA1D12781A60BE
S31520002040C046BD4602B080BD400E474280B582B034
S3152000205000AF7860034B7A681A60C046BD4602B06E
S3152000206080BDC0465C01474280B584B000AF786031
S315200020700023FB60094A8C23D358FB60FB68084A7F
S315200020801340FB60FA687B681343FB6003498C228C
S31520002090FB688B50C046BD4604B080BD0038024068
S315200020A0FFFFCFFF80B584B000AF78600023FB60D0
S315200020B0094A8C23D358FB60FB68084A1340FB600F
S315200020C0FA687B681343FB6003498C22FB688B50BC
S315200020D0C046BD4604B080BD00380240FFFF3FFF2A
S315200020E080B584B000AF78600023FB600A4A8C2359
S315200020F0D358FB60FB681F229343FB607B68013B40
S31520002100FA681343FB6004498C22FB688B50C04657
S31520002110BD4604B080BDC0460038024080B584B0BC
S3152000212000AF78600023FB600A4A8C23D358FB60FB
S31520002130FB68094A1340FB607B68013B1B02FA6877
S315200021401343FB6003498C22FB688B50C046BD4677
S3152000215004B080BD00380240FFE0FFFF80B584B0A8
S3152000216000AF78600023FB60094A8C23D358FB60BC
S31520002170FB68084A1340FB60FA687B681343FB60E0
S3152000218003498C22FB688B50C046BD4604B080BDF7
S3152000219000380240FFFFFCFF80B582B000AF7860B8
S315200021A0034B7A681A60C046BD4602B080BDC04661
S315200021B0E011474280B582B000AF78600A00FB1C70
S315200021C01A70FB1C1B78002B06D0094B196B084B89
S315200021D07A680A431A6306E0054B1A6B7B68D94373
S315200021E0034B0A401A63C046BD4602B080BDC046B6
S315200021F00038024080B582B000AF78600A00FB1C30
S315200022001A70FB1C1B78002B06D0094B596B084B08
S315200022107A680A435A6306E0054B5A6B7B68D943B2
S31520002220034B0A405A63C046BD4602B080BDC04635
S315200022300038024080B582B000AF78600A00FB1CEF
S315200022401A70FB1C1B78002B06D0094B996B084B88
S315200022507A680A439A6306E0054B9A6B7B68D943F2
S31520002260034B0A409A63C046BD4602B080BDC046B5
S315200022700038024080B582B000AF78600A00FB1CAF
S315200022801A70FB1C1B78002B06D0094B196C084BC7
S315200022907A680A431A6406E0054B1A6C7B68D943B0
S315200022A0034B0A401A64C046BD4602B080BDC046F4
S315200022B00038024080B582B000AF78600A00FB1C6F
S315200022C01A70FB1C1B78002B06D0094B596C084B47
S315200022D07A680A435A6406E0054B5A6C7B68D943F0
S315200022E0034B0A405A64C046BD4602B080BDC04674
S315200022F00038024080B582B000AF78600A00FB1C2F
S315200023001A70FB1C1B78002B06D0094B1969084B49
S315200023107A680A431A6106E0054B1A697B68D94335
S31520002320034B0A401A61C046BD4602B080BDC04676
S315200023300038024080B582B000AF78600A00FB1CEE
S315200023401A70FB1C1B78002B06D0094B5969084BC9
S315200023507A680A435A6106E0054B5A697B68D94375
S31520002360034B0A405A61C046BD4602B080BDC046F6
S315200023700038024080B582B000AF78600A00FB1CAE
S315200023801A70FB1C1B78002B06D0094B9969084B49
S315200023907A680A439A6106E0054B9A697B68D943B5
S315200023A0034B0A409A61C046BD4602B080BDC04676
S315200023B00038024080B582B000AF78600A00FB1C6E
S315200023C01A70FB1C1B78002B06D0094B196A084B88
S315200023D07A680A431A6206E0054B1A6A7B68D94373
S315200023E0034B0A401A62C046BD4602B080BDC046B5
S315200023F00038024080B582B000AF78600A00FB1C2E
S315200024001A70FB1C1B78002B06D0094B596A084B07
S315200024107A680A435A6206E0054B5A6A7B68D943B2
S31520002420034B0A405A62C046BD4602B080BDC04634
S315200024300038024080B582B000AF78600A00FB1CED
S315200024401A70FB1C1B78002B06D0094B196D084B04
S315200024507A680A431A6506E0054B1A6D7B68D943EC
S31520002460034B0A401A65C046BD4602B080BDC04631
S315200024700038024080B582B000AF78600A00FB1CAD
S315200024801A70FB1C1B78002B06D0094B596D084B84
S315200024907A680A435A6506E0054B5A6D7B68D9432C
S315200024A0034B0A405A65C046BD4602B080BDC046B1
S315200024B00038024080B582B000AF78600A00FB1C6D
S315200024C01A70FB1C1B78002B06D0094B996D084B04
S315200024D07A680A439A6506E0054B9A6D7B68D9436C
S315200024E0034B0A409A65C046BD4602B080BDC04631
S315200024F00038024080B582B000AF78600A00FB1C2D
S315200025001A70FB1C1B78002B06D0094B196E084B42
S315200025107A680A431A6606E0054B1A6E7B68D94329
S31520002520034B0A401A66C046BD4602B080BDC0466F
S315200025300038024080B582B000AF78600A00FB1CEC
S315200025401A70FB1C1B78002B06D0094B596E084BC2
S315200025507A680A435A6606E0054B5A6E7B68D94369
S31520002560034B0A405A66C046BD4602B080BDC046EF
S315200025700038024080B582B000AF0200FB1D1A7001
S31520002580FB1D1B78012B06D1084B1A6F074B082120
S315200025900A431A6705E0054B1A6F044B08218A4344
S315200025A01A67C046BD4602B080BDC046003802400C
S315200025B080B582B000AF0200FB1D1A70BB1D0A1C3D
S315200025C01A70BB1D1B78002B09D00C4B1B78DAB276
S315200025D00A49FB1D1B781343DBB20B700AE0074B3D
S315200025E01B78DBB2FA1D1278D243D2B203491340CC
S315200025F0DBB20B70C046BD4602B080BD0D3802402E
S3152000260080B586B000AF0200FB1D1A700023FB6068
S3152000261000237B611323FB1800221A70FB1D1B78F5
S315200026205B09DBB2FB60FB68012B03D1144B1B68F3
S315200026307B6109E0FB68022B03D1114B1B6F7B6189
S3152000264002E00F4B5B6F7B61FB1D1B781F22134043
S31520002650FB607A69FB68DA4013000122134004D03C
S315200026601323FB1801221A7003E01323FB18002200
S315200026701A701323FB181B781800BD4606B080BDC0
S315200026800038024080B500AF044B5A6F034B8021BF
S3152000269049040A435A67C046BD4680BD00380240F9
S315200026A080B584B000AF0200FB1D1A700F23FB1803
S315200026B000221A700A4BDB68FA1D1278134004D0E8
S315200026C00F23FB1801221A7003E00F23FB180022A8
S315200026D01A700F23FB181B781800BD4604B080BD66
S315200026E00038024080B582B000AF0200FB1D1A7090
S315200026F0034AFB1D1B781370C046BD4602B080BD41
S315200027000E38024080B582B000AF01211020FFF7BD
S3152000271051FD3B00180001F00DF93B00644A1A6098
S315200027203B0001221A713B0000229A713B000022D5
S31520002730DA713B005F4A1900100001F06FF83B0088
S31520002740180001F0F7F83B005B4A1A603B000022B4
S315200027501A713B000122DA713B00564A190010001B
S3152000276001F05CF801210120FFF724FD3B00180051
S3152000277001F0E0F83B004E4A1A603B0001221A7134
S315200027803B0000229A713B000022DA713B004B4A43
S315200027901900100001F042F83B00180001F0CAF8B9
S315200027A03B00454A1A603B0000221A713B00012279
S315200027B0DA713B00414A1900100001F02FF801217F
S315200027C00420FFF7F7FC3B00180001F0B3F83B00AC
S315200027D0374A1A603B0001221A713B0000229A7187
S315200027E03B000022DA713B00354A1900100001F047
S315200027F015F83B00180001F09DF83B002E4A1A60A0
S315200028003B0000221A713B000122DA713B002C4A60
S315200028101900100001F002F801210820FFF7CAFC78
S315200028203B00180001F086F83B00214A1A603B0065
S3152000283001221A713B0000229A713B000022DA71B4
S315200028403B00204A1900100000F0E8FF3B0018006A
S3152000285001F070F83B00184A1A603B0000221A71FA
S315200028603B000122DA713B00164A1900100000F0E5
S31520002870D5FF01210220FFF79DFC3B00180001F047
S3152000288059F83B0004221A603B0001221A713B00D2
S3152000289000229A713B000022DA713B000A4A190095
S315200028A0100000F0BBFFC046BD4602B080BDC0464A
S315200028B0AAAA000000100240555500000000024060
S315200028C000080240000C02400004024080B500AF20
S315200028D0034B1B685A1C024B1A60C046BD4680BD7E
S315200028E0E83C002080B582B000AF094B094A1A6047
S315200028F0094B1800FFF76AF803007B607B68002B02
S3152000290001D0FFF7EFFFC046BD4602B080BDC046EE
S315200029103CC00120CD2800204090020080B584B024
S3152000292000AF7860074B1A687B68D318FB60C046F7
S31520002930FA68044B1B689A42FAD8C046BD4604B0D2
S3152000294080BDC046E83C002080B500AF0121402074
S31520002950FFF750FC012000F06EFBC046BD4680BD4F
S31520002960F0B599B004AFFFF7CDFEFFF7BBFFFDF73B
S3152000297035FEFFF7E9FFC046E14B1B68E14A93426B
S31520002980FAD90023BB6100237B641BE00023BB64D0
S3152000299012E0DD4B7A6C9200D058DC4BBA6C5200B8
S315200029A0D35A190001F003F8031E02D1BB69013383
S315200029B0BB61BB6C0233BB64BB6C0F2BE9D97B6C50
S315200029C001337B647B6C032BE0D9BE69731E3B62AB
S315200029D03300BB600023FB60B968FA680B001B0E4E
S315200029E01000000278617869184378610B001B0299
S315200029F03B6133003B6000237B6039687A680B00BB
S31520002A001B0E100005021D430B001C0233005B0148
S31520002A1003330733DB08DB006A46D31A9D4604AB33
S31520002A2003339B089B00FB610023FB6400233B646C
S31520002A3051E00023FB6348E0B34B3A6C9200D05838
S31520002A40B24BFA6B5200D35A190000F0B0FF031EA6
S31520002A5038D1AE4BFA6B5200D35A1900FA69FB6C87
S31520002A605B01D31814331960FB6B5A1CA74B520019
S31520002A70D35A1900FA69FB6C5B01D318103319601D
S31520002A80FA69FB6C5B01D318043300221A60FA69D9
S31520002A90FB6C5B01D318083300221A70FA69FB6CB1
S31520002AA05B01D318093301221A70974B3A6C9200B6
S31520002AB0D258F969FB6C5B01CB181C331A60FB6C8E
S31520002AC00133FB64FB6B0233FB63FB6B0F2BB3D928
S31520002AD03B6C01333B643B6C032BAAD933005B016F
S31520002AE05B09180000F0B8F9894B1B68002B06D14A
S31520002AF080239B01874A1900100000F0B0FF0023B5
S31520002B00BB6315E0FA69BB6B5B01D3181C331868ED
S31520002B10FA69BB6B5B01D31810331B689BB2190093
S31520002B2000F09DFF6420FFF7F9FEBB6B0133BB630A
S31520002B3033005B015A09BB6B9A42E3D833005B0131
S31520002B405B097B6315E0FA697B6B5B01D3181C3349
S31520002B501868FA697B6B5B01D31810331B689BB22C
S31520002B60190000F08BFF6420FFF7D8FE7B6B013B3A
S31520002B707B637B6B002BE6DAC820FFF7CFFE0023B2
S31520002B803B6312E0FA693B6B5B01D3181C33186870
S31520002B90FA693B6B5B01D31810331B689BB2190093
S31520002BA000F05DFF3B6B01333B6333005B015A0949
S31520002BB03B6B9A42E6D8584B1800FFF7AFFE00232E
S31520002BC0FB6212E0FA69FB6A5B01D3181C331868B2
S31520002BD0FA69FB6A5B01D31810331B689BB2190094
S31520002BE000F04CFFFB6A0133FB6233005B015A099C
S31520002BF0FB6A9A42E6D8494B0421180000F02FFFC1
S31520002C000023BB62FDE0FA69BB6A5B01D31804337B
S31520002C101B680422134000D0F0E0FA69BB6A5B010E
S31520002C20D3181C331868FA69BB6A5B01D3181433AE
S31520002C301B689BB2190000F0BAFE031E0ED1FA697A
S31520002C40BB6A5B01D31804331B68354A1A40F969FD
S31520002C50BB6A5B01CB1804331A601EE0FA69BB6AB3
S31520002C605B01D31804331B68002B08D1244B1B6847
S31520002C701900FA69BB6A5B01D31818331960FA691F
S31520002C80BB6A5B01D31804331B6801221A43F96916
S31520002C90BB6A5B01CB1804331A6000237B62A6E073
S31520002CA0FA697B6A5B01D31804331B68012213403F
S31520002CB03AD0FA697B6A5B01D31818331A68F96926
S31520002CC07B6A5B01CB1808331B78DBB21900154BE6
S31520002CD04B43D3181A000A4B1B689A4224D2FA692E
S31520002CE07B6A5B01D3181C331868FA697B6A5B011F
S31520002CF0D31810331B689BB2190000F0B0FE23E0F6
S31520002D00E83C0020CF070000083E0020E83D0020D8
S31520002D10E43C002000080240B80B000000040240FA
S31520002D20FCFF000010270000FA697B6A5B01D318BC
S31520002D301C331868FA697B6A5B01D31810331B6849
S31520002D409BB2190000F09AFEFA697B6A5B01D318E0
S31520002D5004331B680122134046D0FA697B6A5B0163
S31520002D60D31818331A68F9697B6A5B01CB180933C3
S31520002D701B78DBB21900274B4B43D3181A00264B7E
S31520002D801B689A4230D2FA697B6A5B01D3180433F6
S31520002D901B680222134027D1FA697B6A5B01D3188C
S31520002DA004331B6802221A43F9697B6A5B01CB183C
S31520002DB004331A60FC697B6A5B019C4610216346DA
S31520002DC0E21851186A4629C929C209681160634662
S31520002DD018596346E21851686346E2189268230040
S31520002DE06344DB6800F0E8F87B6A01337B623300DA
S31520002DF05B015A097B6A9A4200D951E7BB6A0133C3
S31520002E00BB6233005B015A09BB6A9A4200D9FAE6D3
S31520002E10F6E6C04610270000E83C002080B584B0C6
S31520002E2000AF78607B680B331B68FB60084B1B6820
S31520002E30FA689A4207D17B681B7B1A00044B1A60FA
S31520002E40044B00221A70C046BD4604B080BDC04661
S31520002E50E43C0020E43D0020F0B58FB002AF78605E
S31520002E600023BB6200237B6200233B6224203B18A5
S31520002E701A7804210A431A703B181A7802210A4349
S31520002E801A7023203B181A781C210A431A70222410
S31520002E903B191A88FE2149000A431A803B181A78E2
S31520002EA002210A431A7020257B191B68DB00DB08E8
S31520002EB0DB007A6A07210A4013437B622826BB1966
S31520002EC01A7804210A431A70BB191A7802218A43F8
S31520002ED01A703B181A781C218A43111C08220A43AF
S31520002EE01A703B191A882E490A401A803B181A78FC
S31520002EF002218A431A707B191B68DB00DB08DB0082
S31520002F00BA6A07210A401343BB62FDF7B1F8031ED4
S31520002F1007D02423FA182823F918224B1800FDF786
S31520002F2015F9214B1B68214A94466344FB62012014
S31520002F3000F0C6F80300012B2ED1022000F0C0F8C5
S31520002F40031E29D1042000F0BBF8031E24D100F073
S31520002F508FF80200164B1A60154B19687B68DAB297
S31520002F600C23F818452300931300002200F079F96A
S31520002F7009E00C23FB181800FDF7BFF9FA239B0084
S31520002F801800FFF7CBFC084B1A68FB6A9A4203D25B
S31520002F90084B1B78002BECD1C046BD460DB0F0BDCA
S31520002FA003FEFFFF1D2E0020E83C002060EA000003
S31520002FB0E43C0020E43D002084B090B587B000AF0B
S31520002FC028243C1920606160A260E3603B1D180044
S31520002FD014231A00002100F07DFE3B1D04225A60B6
S31520002FE03B1D04221A723B1D04229A723B1D0A22A3
S31520002FF0DA723B1D0B221A733B1D0C225A733B1DA2
S3152000300001229A733B1D1800FDF777F9C046BD468D
S3152000301007B090BC08BC04B01847C04680B500AFC6
S3152000302001214020FFF786F900214020FFF782F991
S31520003030C046BD4680BD80B582B000AF0200FB1DF4
S315200030401A70FB1D1B78002B06D0084B1A68074BFD
S3152000305004210A431A6005E0044B1A68034B042135
S315200030608A431A60C046BD4602B080BD000806509D
S3152000307080B500AF024B9B681800BD4680BDC04698
S315200030800008065080B582B000AF0200FB1D1A7002
S31520003090FB1D1B78002B06D0084B1A68074B08210E
S315200030A00A431A6005E0054B1A68044B08218A4337
S315200030B01A60C046BD4602B080BDC0460008065014
S315200030C080B584B000AF0200FB1D1A700F23FB18D9
S315200030D000221A700A4B5B68FA1D1278134004D03E
S315200030E00F23FB1801221A7003E00F23FB1800227E
S315200030F01A700F23FB181B781800BD4604B080BD3C
S315200031000008065080B582B000AF0200FB1D1A7081
S31520003110FB1D1B781A01034BD2435A60C046BD469D
S3152000312002B080BD0008065080B584B000AF020012
S31520003130FB1D1A700F23FB1800221A700A4B5B68BE
S31520003140FA1D1278134004D00F23FB1801221A709F
S3152000315003E00F23FB1800221A700F23FB181B789D
S315200031601800BD4604B080BD0008065080B582B068
S3152000317000AF0200FB1D1A70FB1D1B78DB43DAB281
S31520003180024B5A60C046BD4602B080BD00080650BC
S3152000319090B585B000AF78600C0010001900FB1CBC
S315200031A0221C1A70BB1C021C1A707B1C0A1C1A706B
S315200031B0BA1C7B1C12781B789A4203D87B1C1B787E
S315200031C01F2B01D9002348E07B680B33FB600023CB
S315200031D0BB600B203B181A781C218A43111C08223D
S315200031E00A431A70FB1C1B7801221340DAB23B18E3
S315200031F001210A4090181A7802218A43111C021CC8
S315200032000A431A700823FB181A687B685A607B6881
S3152000321007229A727B6804221A727B6800225A72ED
S31520003220FB68BA1C12781A70FB6801337A1C127874
S315200032301A70FB68023320217A181288D2B21A70CB
S31520003240FB6804337A181288D2B21A70FB680633E8
S315200032502822BA1812781A7001231800BD4605B024
S3152000326090BD80B586B000AFF860B9601900FB1D2F
S315200032701A70BB1D0A1C1A70FB680B337B61002376
S315200032803B6113203B181A781C218A43111C0C22FF
S315200032900A431A703B181A7802210A431A7010231F
S315200032A0FB181A68FB685A60FB6807229A72FB684B
S315200032B004221A72FB6800225A72BB68DAB27B6952
S315200032C01A707B690433FA1D12781A707B690533EC
S315200032D0BA1D12781A707B6906332022BA18127822
S315200032E01A7001231800BD4606B080BD80B586B091
S315200032F000AFF860B960FB1D1A70FB680B337B6169
S3152000330000233B6113203B181A781C218A43111C89
S3152000331008220A431A703B181A7802218A431A7027
S315200033201023FB181A68FB685A60FB6805229A72FC
S31520003330FB6804221A72FB6800225A72BB680B33A0
S315200033401B68DAB27B691A707B690433FA1D12781E
S315200033501A70C0461800BD4606B080BD80B584B040
S3152000336000AF786039607B680B33FB607B68042292
S315200033709A723B68DAB2FB681A70C0461800BD46DE
S3152000338004B080BD80B586B000AFF860B9607A60C1
S315200033903B60FB680B337B617B69BB607B690133D8
S315200033A07B607B6902333B607B6904333B627B69CC
S315200033B006337B6201231800BD4606B080BD80B56A
S315200033C082B000AF78607B686422002199547B68C4
S315200033D06522002199547B68662200219954C046B3
S315200033E0BD4602B080BD80B582B000AF78600A00CD
S315200033F0FB1C1A707B6864229B5C642B01D1002322
S315200034001EE07B6865229B5C5A1CD0B27A686521D7
S31520003410505419007B68FA1C12785A547B6864222F
S315200034209B5C0133D9B27B68642299547B68652200
S315200034309B5C642B03D17B68652200219954012370
S315200034401800BD4602B080BD80B584B000AF78605C
S315200034500A00FB1C1A707B6865229B5C002B05D03A
S315200034607B6865229B5C013BDAB200E063220F2178
S315200034707B181A707B181B787A68F91C0978D15446
S31520003480C046BD4604B080BD80B582B000AF78602E
S3152000349039607B6864229B5C002B01D100231EE0EF
S315200034A07B6866229B5C5A1CD0B27A68662150548F
S315200034B01A007B689A5C3B681A707B6864229B5C66
S315200034C0013BD9B27B68642299547B6866229B5C57
S315200034D0642B03D17B6866220021995401231800AE
S315200034E0BD4602B080BD000080B582B000AF7860D6
S315200034F0044B7A6804490A43DA60C046BD4602B0E6
S3152000350080BDC04600ED00E00000FA05B0B584B0ED
S3152000351000AF78600F23FB1800221A700E23FB18C9
S3152000352000221A700D23FB180F221A707B68DB7895
S31520003530002B4DD0314BDB68DB431B0ADAB20F2060
S315200035403B1807210A401A700E257B193A18127863
S3152000355004218A1A1A700D243B191A7801007B1847
S315200035601B781A413B191A707B685B781A007B1905
S315200035701B789A4008007B181A707B689B783A194A
S3152000358012781340D9B23B183A1812780A431A70A7
S315200035903B183A18127812011A70194A7B681B7860
S315200035A01900C0239B005218D3183A1812781A70A3
S315200035B07B681B781A001F23134011497A681278FA
S315200035C05209D2B2100001229A4083005A5010E0CC
S315200035D07B681B781A001F23134009497A681278E2
S315200035E05209D2B2100001229A40030020339B00D8
S315200035F05A50C046BD4604B0B0BDC04600ED00E0FE
S3152000360000E100E080B582B000AF786039603B68A9
S31520003610054A13401900054B7A680A439A60C0464A
S31520003620BD4602B080BDC04680FFFF1F00ED00E012
S3152000363080B582B000AF0200FB1D1A70BB1D0A1CAC
S315200036401A70BB1D1B78002B07D00A4B1969FB1D6E
S315200036501A78084B0A431A6107E0064B1A69FB1DC4
S315200036601B78D943034B0A401A61C046BD4602B0B7
S3152000367080BDC04600ED00E080B582B000AF786026
S315200036807B68042B06D1084B1A68074B04210A4392
S315200036901A6005E0044B1A68034B04218A431A601A
S315200036A0C046BD4602B080BD10E000E080B582B0C5
S315200036B000AF78607B684E4A934208D101210120F1
S315200036C0FEF718FE00210120FEF714FE8CE07B6831
S315200036D0484A934208D101210220FEF70BFE002121
S315200036E00220FEF707FE7FE07B68434A934208D11B
S315200036F001210420FEF7FEFD00210420FEF7FAFD3D
S3152000370072E07B683D4A934208D101210820FEF7EA
S31520003710F1FD00210820FEF7EDFD65E07B68384AC3
S31520003720934208D101211020FEF7E4FD002110204C
S31520003730FEF7E0FD58E07B68324A934208D101212A
S315200037402020FEF7D7FD00212020FEF7D3FD4BE0F9
S315200037507B682D4A934208D101214020FEF7CAFDFD
S3152000376000214020FEF7C6FD3EE07B68274A9342B3
S3152000377008D101218020FEF7BDFD00218020FEF723
S31520003780B9FD31E07B68224A93420CD180235B004D
S3152000379001211800FEF7AEFD80235B0000211800F2
S315200037A0FEF7A8FD20E07B681A4A93420CD18023BD
S315200037B09B0001211800FEF79DFD80239B00002120
S315200037C01800FEF797FD0FE07B68134A93420BD152
S315200037D08023DB0001211800FEF78CFD8023DB000F
S315200037E000211800FEF786FDC046BD4602B080BD0A
S315200037F0000002400004024000080240000C024083
S31520003800001002400014024000180240001C024032
S3152000381000200240002402400028024080B586B0E5
S3152000382000AF7860396000237B6100233B61002371
S31520003830FB6000237B6176E001227B699A401300BE
S315200038403B613B681A683B691340FB60FA683B6939
S315200038509A4265D17B681B687A69520003219140A0
S315200038600A00D2431A407B681A607B681A683B6854
S315200038701B7919007B695B0099400B001A437B6812
S315200038801A603B681B79012B03D03B681B79022BFE
S315200038902ED17B689B687A695200032191400A00E9
S315200038A0D2431A407B689A607B689A683B685B794A
S315200038B019007B695B0099400B001A437B689A606C
S315200038C07B685B687A6992B2110001228A40D243F2
S315200038D01A407B685A607B685B683A689279110067
S315200038E07A6992B291400A0092B21A437B685A6072
S315200038F07B68DB687A6992B25200032191400A0004
S31520003900D2431A407B68DA607B68DA683B68DB79E9
S3152000391019007B695B0099400B001A437B68DA60CB
S315200039207B6901337B617B690F2B85D9C046BD46F8
S3152000393006B080BD80B582B000AF78607B68094A4A
S315200039401A607B6800221A717B6800225A717B6894
S3152000395000229A717B680022DA71C046BD4602B009
S3152000396080BDC046FFFF000080B584B000AF786000
S315200039700A00BB1C1A8080235B02FB60BB1C1A88D2
S31520003980FB681343FB60FA687B68DA61BB1C1A8804
S315200039907B68DA61FA687B68DA617B68DB69FB60E1
S315200039A07B68DB69FB60C046BD4604B080BD80B540
S315200039B084B000AF78600A00BB1C1A800F23FB1866
S315200039C000221A707B681B69BA1C1288134004D027
S315200039D00F23FB1801221A7003E00F23FB18002285
S315200039E01A700F23FB181B781800BD4604B080BD43
S315200039F080B582B000AF78607B681B699BB21800E7
S31520003A00BD4602B080BD80B584B000AF78600A00A4
S31520003A10BB1C1A800F23FB1800221A707B685B6977
S31520003A20BA1C1288134004D00F23FB1801221A70E7
S31520003A3003E00F23FB1800221A700F23FB181B78B4
S31520003A401800BD4604B080BD80B582B000AF786056
S31520003A507B685B699BB21800BD4602B080BD80B50D
S31520003A6082B000AF78600A00BB1C1A807B68BA1C43
S31520003A7012881A83C046BD4602B080BD80B582B08A
S31520003A8000AF78600A00BB1C1A807B68BA1C1288BB
S31520003A905A83C046BD4602B080BD80B582B000AF15
S31520003AA0786008001100BB1C021C1A807B1C0A1CB3
S31520003AB01A707B1C1B78002B04D07B68BA1C1288DA
S31520003AC01A8303E07B68BA1C12885A83C046BD4617
S31520003AD002B080BD80B582B000AF78600A00BB1C02
S31520003AE01A80BB1C1A887B685A61C046BD4602B044
S31520003AF080BD80B582B000AF78600A00BB1C1A80FA
S31520003B007B685A69BB1C1B885A407B685A61C04631
S31520003B10BD4602B080BD80B584B000AF7860080095
S31520003B201100BB1C021C1A807B1C0A1C1A70002365
S31520003B30FB600023BB607B1C1A78BB1C1B880721FB
S31520003B400B409B009A401300FB60BB1C1B88DB08C4
S31520003B509BB21A007B6808329200D358BA1C12888E
S31520003B6007210A4092000F2191400A00D243B91C36
S31520003B700988C90889B208001A4011007B6802002A
S31520003B8008329200D150BB1C1B88DB089BB21A005E
S31520003B907B6808329200D358FA681343BB60BB1C7B
S31520003BA01B88DB089BB21A007B6808329200B96832
S31520003BB0D150C046BD4604B080BDC0460022430851
S31520003BC08B4274D303098B425FD3030A8B4244D3BF
S31520003BD0030B8B4228D3030C8B420DD3FF22090201
S31520003BE012BA030C8B4202D31212090265D0030BC0
S31520003BF08B4219D300E0090AC30B8B4201D3CB03B6
S31520003C00C01A5241830B8B4201D38B03C01A5241F7
S31520003C10430B8B4201D34B03C01A5241030B8B42F9
S31520003C2001D30B03C01A5241C30A8B4201D3CB02E4
S31520003C30C01A5241830A8B4201D38B02C01A5241C9
S31520003C40430A8B4201D34B02C01A5241030A8B42CC
S31520003C5001D30B02C01A5241CDD2C3098B4201D3E4
S31520003C60CB01C01A524183098B4201D38B01C01A62
S31520003C70524143098B4201D34B01C01A52410309D9
S31520003C808B4201D30B01C01A5241C3088B4201D388
S31520003C90CB00C01A524183088B4201D38B00C01A35
S31520003CA0524143088B4201D34B00C01A5241411A5C
S31520003CB000D20146524110467047FFE701B5002069
S31520003CC000F006F802BDC0460029F7D076E7704717
S31520003CD07047C04603001218934200D170471970EE
S31520003CE00133F9E70000000000000000000000009A
S31520003CF0000000000000000000000000000000009E
S31520003D00000000000000000000000000000000008D
S31520003D10000000000000000000000000000000007D
S31520003D20000000000000000000000000000000006D
S31520003D30000000000000000000000000000000005D
S31520003D40000000000000000000000000000000004D
S31520003D50000000000000000000000000000000003D
S31520003D60000000000000000000000000000000002D
S31520003D70000000000000000000000000000000001D
S31520003D80000000000000000000000000000000000D
S31520003D9000000000000000000000000000000000FD
S31520003DA000000000000000000000000000000000ED
S31520003DB000000000000000000000000000000000DD
S31520003DC000000000000000000000000000000000CD
S31520003DD000000000000000000102030401020304A9
S31520003DE0060708090100000001000200040008007F
S31520003DF0100020004000800000010002000400089E
S31520003E000010002000400080001002400000024008
S30D20003E10000C024000080240EC
S70520000000DA
